:020000000C945E
:100002003E000C9400000C9400000C9400000C9430
:1000120000000C9400000C9400000C9400000C945E
:1000220000000C9400000C9400000C9400000C944E
:1000320000000C9400000C9400000C9400000C943E
:1000420000000C9400000C9400000C9400000C942E
:1000520000004C4D33352053656E736F720054654A
:100062006D703A0080C00C006002540006006C0201
:1000720060000200720266000000F894EE27ECBBFA
:10008200F1E0FBBFEBBFE5BF8DE0A2E0BB27ED9344
:100092008A95E9F780E098E0A0E6ED930197E9F709
:1000A200E8E6F0E085919591009761F0A591B59110
:1000B20005901590BF01F00105900D920197E1F7AF
:1000C200FB01F0CFEFE5EDBFE8E0EEBFC0E6D2E026
:1000D2000C947900AA93E881E064E7B98BE18A95F0
:1000E200F1F7369A349BFECF349AE4B1F5B1E1C010
:1000F200E0E0EABBEBBBE7BBE8BBEFEFE4BBE0E071
:10010200E5BBE1BBE2BBE0E4E7B9E6E8E6B9E0E083
:10011200E0BFA0E1A5D0E3E0EA93A0E064D0A0E6CE
:10012200B2E08DD0E3E0EA93A1E05DD0ACE6B2E0CC
:1001320086D02197A0E0CEDF662777270E94D801DC
:10014200AEE3B9E78CE990E40E9406020E94A101A5
:10015200DF01EAE0F0E00E947802E883E9E0EA9356
:10016200A1E041D0A881AA3038F0B0E0EAE0F0E0A6
:100172000E947802F09601C0E0E2AE2F4BD0A88137
:10018200BB27EAE0F0E00E947D02E05DAE2F42D0A4
:10019200AFED40D0A3E43ED0A4E6B0E00E946801F7
:1001A2002196C7CFFFCFAA93E5B3EF70AE2FE881B8
:1001B200E07FEA2BE5BB8DE08A95F1F7AA9A8DE004
:1001C2008A95F1F7AA988DE08A95F1F772C0AA9301
:1001D200A881E9DFE881E295E883A881E4DF85E888
:1001E2008A95F1F766C0AA93E881F0E0EE58FD4FD8
:1001F200E081A981AE0FEBDF5980488022960895F5
:10020200A2E059D0ACE0E3DFA1E055D0E0E04E2E11
:100212005E2E0895AA93A881AA3011F0571448F0CF
:10022200E0E0EA934394A42DDEDFA881AA3009F42A
:1002320040C05394A89AA881CADFA8983AC0BA933A
:10024200AA931A93A981BA81ED91A983BA831E2F29
:10025200E03019F0A12FDEDFF5CF18812396089543
:10026200AA93E4B3E06FE4BBA29AA09AA19AAA98D7
:10027200A898A9987880E881E058E0937402E88110
:10028200E054E0937502A4E1B0E00E94680118D046
:1002920017D016D0A0E287DF88EC90E00197F1F743
:1002A200A8E295DFA4E093DFA5E891DFA6E08FDF67
:1002B200A7DF219608958BDFA3E0B0E00C946801DC
:1002C200A0E371DF88EC90E00197F1F708951096B2
:1002D20039F080ED97E00197F1F7A8951197C9F7EA
:1002E2000895552342F4503811F4E0FF04C03196CA
:1002F200691F791F6BF050E8572711F45F9373C0A1
:100302005F3F31F0660F000C57956795752F089582
:100312005F9300200AF073C06CC050E8192E1522BA
:10032200880F991F9527550F879550E8072E0522AC
:10033200660F771F7527550F67950895689401C05A
:10034200E8945F93F2DF703818F07F3F08F44BC0F7
:1003520056E1571BAAF4519558300EF4593030F03B
:10036200EFEFFFEF6FEF7FE777F91AC0772755239B
:10037200B9F0EE0FFF1F661F771F5A95D1F710C015
:100382007727583028F0EF2FF62F672F5850F9CFE4
:10039200552331F076956795F795E7955A95D1F7FC
:1003A20000200AF484D05F910895689401C0E89413
:1003B200309760407040B1F0002426F0772312F4A9
:1003C200009475D0172E7EE1112032F07A95EE0F4F
:1003D200FF1F661F111CF9CFEF2FF62F612D5F93C0
:1003E2008ADF5F910895EE27FF27662777275F91BF
:1003F2000895EFEFFFEF6FE77FEF5F910895EFEF63
:10040200FFEF6FE77FE75F9108955F9386DF7038B4
:1004120051F3903841F301240894791F23F41CF31B
:1004220000203AF3ECCF0F921F932F933F934F93F9
:10043200112722279927689FA0018F9F302D410DF8
:10044200591F6B9F300D411D591F8E9F27D0BF9F93
:1004520025D06A9F23D0BE9F1DD0AF9F1BD0AE9FD9
:10046200110D291F391F491F591FE32FF42F652F23
:10047200522F4F913F912F911F910F9066232AF097
:10048200550FEE1FFF1F661F02C073954BF229DF47
:100492005F910895100D211D391F02C0200D311DDD
:1004A200491F591F0895F195E195F0400895F0957F
:1004B20060957095E195FF4F6F4F7F4F08956F2FB5
:1004C200660F660B762F08950024112490E1AA0F7F
:1004D200BB1F001C111C0E1A1F0A18F40E0E1F1E41
:1004E20001C0A1609A9599F7FD01D001089512D03B
:1004F200EBDF0EF4D8DF0895E894B7FF04C0A095AF
:10050200B09511966894F7FDCEDFDEDFFD010EF4A3
:10051200CADF0895E894F7FF02C0C5DF6894B7FF09
:1005220006C0A095B095119600F8039400FA0895BC
:00000001FF
