:080000000C943C010C9400007B
:100008000C9400000C9400000C9400000C94000068
:100018000C9400000C9400000C9400000C94000058
:100028000C9400000C9400000C9400000C94000048
:100038000C9400000C9400000C9400000C94000038
:100048000C9400000C9400000C940000050720603C
:10005800000000000000005F000000070007001417
:100068007F147F14242A7F2A1223130864623649D6
:100078005522500005030000001C224100004122C7
:100088001C00082A1C2A0808083E080800503000EE
:100098000008080808080030300000201008040292
:1000A8003E5149453E00427F400042615149462148
:1000B80041454B311814127F1027454545393C4AB4
:1000C8004949300171090503364949493606494904
:1000D800291E00363600000056360000000814229B
:1000E8004114141414144122140800020151090681
:1000F800324979413E7E1111117E7F494949363E88
:10010800414141227F4141221C7F494949417F09A0
:100118000901013E414151327F0808087F00417FB3
:1001280041002040413F017F081422417F40404068
:10013800407F0204027F7F0408107F3E4141413E18
:100148007F090909063E4151215E7F091929464662
:100158004949493101017F01013F4040403F1F208B
:1001680040201F7F2018207F63140814630304783D
:100178000403615149454300007F414102040810CE
:100188002041417F000004020102044040404040F9
:10019800000102040020545454787F4844443838FD
:1001A80044444420384444487F3854545418087E02
:1001B800090102081454543C7F0804047800447D63
:1001C80040002040443D00007F10284400417F400B
:1001D800007C041804787C080404783844444438C3
:1001E8007C14141408081414187C7C0804040848A7
:1001F80054545420043F4440203C4040207C1C2060
:1002080040201C3C4030403C44281028440C5050AE
:10021800503C4464544C44000836410000007F00C0
:1002280000004136080002010204027F4141417F7B
:10023800000103070F1F3F7FFF004972616E2055C1
:100248006E6976206F6620536369656E6365202644
:1002580020546563680001002D4E414E00494E460A
:1002680000001C006002420201009C025E020000C5
:10027800F894EE27ECBBF1E0FBBFEBBFE5BFF8E17C
:10028800F1BDE1BD8DE0A2E0BB27ED938A95E9F7CA
:1002980080E098E0A0E6ED930197E9F7EAE6F2E05E
:1002A80085919591009761F0A591B591059015906C
:1002B800BF01F00105900D920197E1F7FB01F0CF26
:1002C800EFE5EDBFE8E0EEBFC0E6D2E00C946C01CC
:1002D800269704EF11E0E4E5F0E0E883F983DE0116
:1002E800A9D109D2A2E3B0E00E944610A0E6B2E08C
:1002F8000E940B070E94980E0E949D0EE0E0EA9370
:10030800EDE2EA93EFE7EA93ADE20E94A40EE1E0A2
:10031800E0938402E5E5E09385020E94A70EE0E001
:100328000E94AB0E0E94A70E0E94AF0EE0E0EA9377
:10033800EFE3EA93EFE70E94AB0EEFE7EA93EFE310
:10034800EA930E94AF0EE1E0E0938402E3E3E093D6
:100358008502EFE7EA93EFE3EA93E0E0EA93A0E0AF
:100368000E944307E0E0EA93EFE3EA93EFE7EA93BA
:10037800A0E00E94A40EE2E0E0938402EFEF0E9466
:10038800B40EEDE2EA93E3E7EA93ADE20E94430795
:10039800E2E0E0938402E5E50E94B40EEEE1EA9320
:1003A800E3E7EA93AEE10E944307E2E0E0938402C8
:1003B800E3E30E94B40EEFE0EA93E3E7EA93AFE0E9
:1003C8000E94A40E0E949D0E0E94B90EE4E0E093E4
:1003D8008402EFEFE09385020E94B90E0E949D0E01
:1003E800EFE3EA93EFE1EA93AEE10E94630C0E9427
:1003F800980EEFE3EA93EFE10E94C10EEEE0F1E020
:10040800FA93EA93AEE10E948B0B0E94980E0E9429
:100418009D0E0E94A70EEFE70E94AB0EE0E0EA9364
:10042800EFE3EA930E94AF0EEFE3EA93E0E0EA938A
:10043800EFE30E94AB0EE0E0EA93EFE1EA93EFE727
:10044800EA93AFE10E94A40E0E94C70EE6E7EA9382
:10045800A6E30E9473080E94CB0EECE6EA93ACE296
:100468000E9473080E94980E0E94C70EECE6EA9359
:10047800ACE20E9464080E94CB0EE8E5EA93A8E18A
:100488000E9464080E94980E0E94C70EECE6EA9348
:10049800ECE2EA93A5E00E94A7080E94CB0EE8E5EB
:1004A800EA93E8E1EA93A3E00E94A7080E94980E65
:1004B800EAE0EA93E0E0EA93EEE1EA93ACE30E9433
:1004C8004F0CE8E2EA93E0E0EA93ECE3EA93ADE26A
:1004D8000E944F0CE6E4EA93E0E0EA93EAE5EA9347
:1004E800AEE10E944F0CE4E6EA93E0E0EA93E8E725
:1004F800EA93AFE00E944F0C0E94980EEAE00E9437
:10050800CF0EACE30E940C0CEEE10E94CF0EADE2E0
:100518000E940C0CE2E30E94CF0EAEE10E940C0C8C
:10052800E6E40E94CF0EAFE00E940C0C0E94980EE9
:10053800E3CEFFCF0000C09A00000895C098C49A87
:10054800C59A08951A93F6DF19B3C098E12F199147
:100558000895AA931A93E0E0EABBC19AC298A981C8
:10056800E2E0EA1B1E2F10FF02C0C49A01C0C49823
:1005780011FF02C0C59A01C0C598E4DFE078E9F729
:1005880018815EC3AA93A981E4DF0E94D50E58C3DF
:10059800E0919A02EA93E0919902EF73E064AE2F3A
:1005A800F1DFE0919A02EA93E0919B02E86BAE2FAB
:1005B800E9DF0895AA93E981E0939902E295EF7043
:1005C800E695E695E0939A02E881E0939B02E0DFE6
:1005D80037C3A0919902AF5FA0939902A03818F091
:1005E800E0E0E0939902E0919902EF7331F4E09131
:1005F8009902EA93A0919B02DDDF0895AA93A09146
:100608009A02A7DFC29A0E94D50E21960895A0915A
:100618009A029FDFE0E0EABBC19AC29A93DF08958D
:10062800AA93E981EA93E9810E94DE0EF0DFB0DF48
:10063800EEDF06C3BA93AA931A93B89AB99ABA9AEC
:10064800BB9AC39ABC9ABD9A79DFC398A4E6B0E076
:100658000E944610C39A10E0123040F41A93AFE398
:1006680091DF1A931395A0EC8DDFF6CFE1E0E093CC
:100678007C02E0E0E0937D02E981FA813097A9F0FD
:10068800A981BA810E945412E0938002F0938102FA
:1006980012960E945412E0939502F0939602A98153
:1006A800BA8114960E9454120AC0E0E0F0E0E09388
:1006B8008002F0938102E0939502F0939602E09312
:1006C8009702F0939802E1E0E0938202E0938302BC
:1006D8000E949D0EE1E0E0938C02EDE8F2E0FA93CF
:1006E800EA93EFEFEA93A8E0B0E00E94860C03D00B
:1006F800E1E01881B5C30E94B01200E030E0E0915B
:100708007D02E03009F00FEF383078F4E0E0EA934A
:10071800A32F3F5F4FDF10E0A12F1F5FA03820F409
:10072800A02F0E94E40EF8CFEFCFE0E0EA93A0E01C
:1007380041DFE0E0EA93A0E095D30E94B712CDC470
:10074800AA931A930A93AC81A03818F4AB81A03409
:1007580008F016C0EC81EA93AC8162DF1E2F18DF27
:10076800EB81E770A1E00E9405120E2FEA81E030CC
:1007780011F0102B03C0E02FE0951E23A12F3EDFC0
:100788001981088125960895AA93A981A03818F49B
:10079800A881A03410F0E0E053C2E981EA93A9816E
:1007A8003FDF1E2EE881E770A1E00E940512E121DB
:1007B80011F0E1E001C0E0E043C2AA931A93ED8191
:1007C800EA93AD812DDF1E2FE3DEE981E63011F0DB
:1007D800E73039F4EB81EA93AA810E94A10CEB83FC
:1007E80008C0E33021F4EB81E095EB8302C0E030F0
:1007F80021F4EA81E0951E2302C0E23029F4EA815F
:10080800AB81EA231E2B0EC0E13029F4EA81AB81CB
:10081800EA231E2707C0E43029F4EA81E095AB817A
:10082800EA2B1E23A12F0E94E40E18811CC5AA934F
:1008380023970E94AE12A889A03848F4AF85A03447
:1008480030F4AE85A03019F0AD85A03009F4C8C1E8
:10085800EE85E887A889BB27EE850E94E80EA138B7
:10086800E0E0BE0720F0A889E0E8EA1BEE872D85C6
:10087800AF85BB27ED850E94E80EA134E0E0BE07F6
:1008880020F0AF85E0E4EA1BED87A985A53011F0DB
:100898000C94A804EC85E13009F4A2C1E33039F4E2
:1008A800E0919702F0919802309709F499C1088570
:1008B800ED85E695E695E6953E2FE22FE77019F46B
:1008C800AD852A17E1F0A02FBB27E32F0E94EC0E7D
:1008D800AA85BB850E94F00E269526952695532F4E
:1008E8005F935F5FE22FAF91EA1748F0102FE12F77
:1008F8001150E03019F00E94F50EF9CFF1CFAE8516
:100908000A1711F1EE85AA85BB85F0E00E94F00E6A
:10091800ED85E77009F03F5F20E02F932F5FE32F0D
:10092800AF91AE1788F41E851F931F5FE02FAF911C
:10093800AE1718F40E94F50EF7CFEE85AE81BF8191
:10094800F0E00E94F00EE9CFEF85E7703E2FED85CD
:10095800E03011F40C94F405EA85FB85EE83FF83FF
:1009680010E00889303011F00C942005AD85A830CE
:1009780010F40C941B05E985E03011F0E33009F41C
:1009880002C0E63009F402C0E73009F402C0E530DD
:1009980009F402C0E83009F402C0E93021F40A93EE
:1009A800E8890E94DE0E1F931F5FEE85AF91AE1798
:1009B800B8F5A985A53061F42ADEEADD0E94020FA8
:1009C800FA93EA9324DEAE2F0E94E80C02DE27C0D9
:1009D800E985E83011F450E00EC0E93011F45FEF1A
:1009E8000AC00E94020F0E940B0F5E2FE985E630B5
:1009F80011F0E73021F40E94110F5E2F06C0E3309A
:100A080011F4509502C0E03021F4A52F0E94E40EA5
:100A180006C00E94150FEFEFEA93AD85CEDEC3CF77
:100A2800EF85E85FEF87ED85E850ED87D1C05D85FC
:100A380020E0E0E0ED877AC0E32FAD85AE0FA93066
:100A480020F42D85E0E0ED8703C0E8E0E31B2E2FBE
:100A58003A93A22F0E94960C4E2FE985E530F1F4C7
:100A68001F931F5FEE85AF91AE17B8F40E941B0F5E
:100A7800AE2FE32F0E940D120E94220FE32FA42F06
:100A88000E940D12E095E1215E2B0E94020FFA935D
:100A9800EA93A52F0E94E80CE3CF2CC0E83011F4AC
:100AA80050E003C0E930A9F45FEF0E94110FAE2FA8
:100AB800E32F0E9405125E2F1F931F5FEE85AF91F3
:100AC800AE1730F40E94150F4A93A0E076DEF4CFFB
:100AD80011C01F931F5FEE85AF91AE1758F40E94A7
:100AE8002D0FAE2FE32F0E940512EA934A93AD858E
:100AF80064DEEFCFED85E03009F472C0AD85A83033
:100B080028F4ED85E21B5E2FE0E003C0532FED854E
:100B1800E850ED8710E0EF85E85FEF87E8E0E31B3A
:100B28002E2F0889EA85FB85EE83FF83E52FF0E009
:100B3800E85CFD4F4491E985E530F1F41F931F5FB0
:100B4800EE85AF91AE17B8F40E941B0FAE2FE22FBF
:100B58000E9405120E94220FE22FA42F0E94051264
:100B6800E095E1215E2B0E94020FFA93EA93A52FEC
:100B78000E94E80CE3CF2CC0E83011F450E003C029
:100B8800E930A9F45FEF0E94110FAE2FE22F0E9407
:100B98000D125E2F1F931F5FEE85AF91AE1730F4D5
:100BA8000E94150F4A93A0E008DEF4CF11C01F93EE
:100BB8001F5FEE85AF91AE1758F40E942D0FAE2F30
:100BC800E22F0E940D12EA934A93AD85F6DDEFCF2E
:100BD800E885AA85BB850E943A0FEA87FB87B7CECE
:100BE8000E94B512619608950E943E0F1CF0E0E045
:100BF800F0E026C0A881B981A038E0E0BE071CF06B
:100C0800EFE7F0E01DC0E881F9811AC00E943E0FAD
:100C18001CF0E0E0F0E014C0A881B981A034E0E065
:100C2800BE071CF0EFE3F0E00BC0E881F98108C0D3
:100C3800AA93E981EA93E981EA93A0917C0280DD95
:100C480022960895BA93AA9323970E94450F8F017D
:100C5800002E012A19F4E0E0F0E058C00E944C0F81
:100C68000F820E944C0F0E820E944C0F0886EB8563
:100C7800A885EA1718F4E0E0F0E048C0F8010F5F33
:100C88001F4F5491E52FA885AE0FEB85EA1718F092
:100C9800E0E0F0E03BC0EE81E695E695E6954E2F64
:100CA800EE81E77009F04F5FEF81E03091F0A985A0
:100CB800BA85EC93A885EB85EA1BF0E0DF01EF81AC
:100CC8000E94EC0EDF01E42F0E94EC0EE00FF11FF2
:100CD8001DC09801E52FF0E00E0F1F1FA885AF5F1C
:100CE800A887A150EB85AE1758F4F9012F5F3F4F45
:100CF800A491B0E0E42F0E94EC0E0E0F1F1FEECF60
:100D0800F901E491A985BA85EC93F8010E94B5121E
:100D18002C960895E0E0E0937E02A0917F02BB2725
:100D28000E94510F0E94E80EE09183020E94E80E93
:100D38006DDFE0937F020895AA9321970E94450FE3
:100D4800309711F40C940507AF81AA3009F457C005
:100D5800EF81EA93DE01179675DFAF01309709F44A
:100D680052C0E0918202AE81EA0F3E2FA0917E022E
:100D7800BB27E32F0E943A0F8F010138E0E01E07DE
:100D880018F0032F1127C6DFE0917E02EA93E09165
:100D98007F02EA93E885EA930E94510FEA93E1E023
:100DA800EA935A934A93A6E042DDE0917E02AE812F
:100DB800EA0FEA93E0917F02EA93E0918202EA93D4
:100DC8000E94510FEA93E0E00E94C10EA8E02FDDD7
:100DD800E0917E02EA93A0917F020E94510FEA0FF0
:100DE800EA933A93E0918302EA93E0E00E94C10E0D
:100DF800A8E01DDDE0E8F0E0E017F10711F48ADF74
:100E080002C000937E020E94B51228960895BA93F4
:100E1800AA931A93A981BA81ED91A983BA831E2F47
:100E2800E03019F0A12F88DFF5CF188119C0AA93F7
:100E3800EA81EA93EA81EA93E0918502AA81EA23AA
:100E480019F0E0917C0202C0E0917D02AE2F78DCBF
:100E5800E881EE0FE883E03011F4E1E0E883E8810F
:100E680023960895AA93A981BB27BEDEE0937E024C
:100E7800A881BB27CBDEE0937F020C949F0CAA933A
:100E88002B970E94AE12AC89BB27AEDEEC8BAA89E9
:100E9800BB27AADEEA8BAB89BB27A6DEEB8BA98929
:100EA800BB27A2DEE98BEA89E0937E02E989E09319
:100EB8007F02E1E0E887E989AB89EA1771F51C89C7
:100EC800AA891A1731F41A93EC89EA93A1E0AFDFE3
:100ED800C7C0AA891A1730F4EA89E11B0E2F41E02E
:100EE80050E006C0AA89E12FEA1B0E2F4FEF5FEFF3
:100EF8003B89E0E0EE830E94580F38F41A933A9346
:100F08003395AA8594DFEF83F6CFEF81E887140F36
:100F1800E02F0150E03061F7A3C0EA89AC89EA17F5
:100F280039F53B89A9893A1730F4E989E31B2E2F53
:100F3800E1E0F0E006C0A989E32FEA1B2E2FEFEFCE
:100F4800FFEFED87FE871C89E0E0EE830E94580FD3
:100F580030F41A9313950E94600FEF83F7CFEF8157
:100F6800E887ED853E0FE22F2150E03061F778C029
:100F7800E0E0EE830E94580F10F00C9434081C89AE
:100F88003B89E1E02E2F0E2FAA89BB27EC890E940E
:100F9800640FAD0155232AF40FEFFA010E94F911ED
:100FA800AF01FA01EE0FFF1FEF87F88BA989BB2766
:100FB800EB890E94640FAD87BE87AE85AA233AF4F9
:100FC8002FEFED85FE850E94F911ED87FE87ED85EF
:100FD800FE85EE0FFF1FEB87FC871A933A93A1E07B
:100FE80026DFE887E0E0E987EA87AD85BE854A170E
:100FF8005B07BCF0100FEB85FC850E94680FA98584
:10100800BA854A175B072CF4320FAF85B8890E945E
:101018006F0F1A930E94600FE887EA89E11751F76A
:1010280018C0320FEF85F8890E94680FED85FE859C
:10103800A985BA85EA17FB072CF4100FAB85BC8588
:101048000E946F0F1A930E94600FE887E989E317DF
:1010580041F7EB89EF5FEB8BE989EF5FE98B8ACF8B
:101068000E94B51265960895BA93AA930E94AE128B
:10107800EE81FF81138101813281AE81BF812C9184
:10108800011718F4502F012F152F231718F4522F7A
:10109800232F352FE12FAE81BF811396EC93E32FD9
:1010A800AE81BF811296EC93E02FAE81BF8111967D
:1010B800EC93AE81BF812C930E94B5120C94020E62
:1010C800AA93EB81EA93EB81EA93EB81AD81EA0F76
:1010D800EA93EB81AD81AE0F02D024960895AA93CE
:1010E8000E94B012E0918402E1503E2FDE01149676
:1010F800BBDFED81E31B1E2FEC81E31B0E2FEF817D
:10110800EA93EF81EA931A93A985B9DE1A93EF81DE
:10111800EA931A93A02FB3DEED81EA930A93E32FA3
:10112800A985EA0FEA93A02FAADEEF81EA93ED8161
:10113800EA93E985EA93E32FA985AE0FA0DE0E9422
:10114800B7120C94020EAA9322970E94AE12EA8557
:10115800E03019F0E985E03009F45EC0E0918502DD
:10116800EE83EFEFE0938502E885AC85EA0F1E2F4A
:10117800E885AB85EA0F2E2FE0918402E150EF83DA
:10118800EA85AC85AE0FA1503A2FA885E32FEA1B5C
:101198000E2FAF813A1BE985AB85AE0FA1504A2FC0
:1011A800A885E42FEA1B5E2FAF814A1B1A93EC85B2
:1011B800EA93E02FE150EA93AE8561DE0A932A9321
:1011C800EA85EA93A1E819D23A932A933A93A52F8C
:1011D800A15055DE0A935A93EA85EA93A8E80DD2FE
:1011E8000A934A931A93A42F4ADE1A935A93EA85CC
:1011F800EA93A4E802D2EC85EA935A93EE85EA933F
:10120800A22F3DDE1A932A93EA85EA93A2E8F5D144
:10121800EE81E093850204C0EC85EA93AC8508DD95
:10122800F3C20E946C121A930A93AA81BB818C8123
:101238009D810E94380D0E9485108F01F801AA81B6
:10124800BB818C819D810E9425120E94BC100E9446
:10125800760FDF01CB010E947B0F10F00F5F1F4F4D
:10126800F8011981088126960895BA93AA932497BC
:10127800E985FA85662777270E94BC10A5E3BAEFAF
:101288008EE89CE30E94820FEC85F0E0FF93EF93D9
:101298000E94870F0E94CE0D0E948A0FAF91BF91C6
:1012A800AE0FBF1FA1DCAE81BF81EC93EB85F0E0F0
:1012B800FF93EF930E94870F0E94480D0E948A0FA8
:1012C800AF91BF91AE1BBF0BA1DCAC81BD81EC938C
:1012D8009DC2BA93AA9323970E94AE12ED85E88720
:1012E800E0918402EF83E0917C02EE83AA89BB2718
:1012F800EF850E943A0F8F01A989BB27E8890E94D0
:10130800640F9D01A989BB27E8890E943A0FAF01A4
:10131800E885E178E13871F0E885E078F1F4AD85A9
:10132800BE85EAE5F0E00E94960F1CF00E949F0F30
:101338000CF413C0332312F00E94A40FAF81A23023
:1013480020F02230E0E03E070CF407C00E94A80F0E
:1013580021F40A93A22FA1506BDCE885E878E838DD
:1013680091F0E885E078C9F4AD85BE85A25FBE4FEF
:101378000E94B10F3CF0AD85BE85A25FBE4F0E94B2
:10138800B60F0CF40AC00E94BB0F38F00E94C20FBF
:1013980021F40A93A42FAF5F4BDCAA89BB27EF8502
:1013A8000E94640F8D01112312F40C94200AE88521
:1013B800E278E23891F0E885E07811F5AD85BE85F0
:1013C800A65ABF4F0E94B10F3CF0AD85BE85A65A04
:1013D800BF4F0E94B60F0CF413C0332312F00E94C3
:1013E800A40FAF81A23020F02230E0E03E070CF4D9
:1013F80007C00E94A80F21F40A93A22FA15018DC5D
:10140800E885E478E43871F0E885E078A9F4AD85FA
:10141800BE85EEE0F1E00E94960F1CF00E949F0F3F
:101428000CF40AC00E94BB0F38F00E94C20F21F4CE
:101438000A93A42FAF5FFCDBAA89BB27E8890E9427
:101448003A0F8F01A989BB27EF850E94640F9D0180
:10145800A989BB27EF850E943A0FAF01E885E1789B
:10146800E13881F0E885E078F1F4EB85FC85AD851D
:10147800BE85AE17BF072CF0E985FA85EA17FB078A
:101488000CF411C033237AF00E94A40FAF81A2306C
:1014980050F0E02FEE5F0E94CB0F29F4E02FEF5FB2
:1014A800EA93A22FC5DBE885E878E83871F0E8858B
:1014B800E078C1F4AD85BE85E8E6F1E00E94960FBC
:1014C8001CF00E949F0F0CF40DC00E94BB0F50F03F
:1014D800E02FEE5F0E94D30F29F4E02FEF5FEA932D
:1014E800A42FA6DBAA89BB27E8890E94640F8D0177
:1014F800112312F40C94D00AE885E278E23871F0EE
:10150800E885E07809F5AD85BE85E4EBF0E00E945A
:10151800960F1CF00E949F0F0CF416C03323A2F004
:101528000E94A40FAF81A23020F00230E0E01E0735
:101538000CF40AC0E02FE2500E94CB0F29F4E02FF0
:10154800E150EA93A22F74DBE885E478E43891F05F
:10155800E885E07809F5AD85BE85AC54BF4F0E949B
:10156800B10F3CF0AD85BE85AC54BF4F0E94B60F9D
:101578000CF412C00E94BB0F20F00230E0E01E07FE
:101588000CF40AC0E02FE2500E94D30F29F4E02F98
:10159800E150EA93A42F4CDB0E94B512639608959C
:1015A800AA930E94B012AF81BB27ED810E94640FFD
:1015B8001BDB1E2FAF81BB27ED810E94E80E14DBD9
:1015C8000E2FAE81BB27EC810E94640F1FDB3E2FDC
:1015D800AE81BB27EC810E94E80E18DB2E2F1A93F0
:1015E8003A930A93A32F4BDC1A932A930A93A22FB8
:1015F80046DC0E94B7120C94020EAA930E94AE1207
:10160800A985A03818F4A885A03418F00E94B5124E
:101618007CC050918402E52F5150E03011F40C94B5
:101628004E0BEF81E03019F40E94B5126EC0EF81C5
:10163800E150EF830E94DB0FAE81A03459F40E9481
:10164800EB0F1A93A02FACDF0E94EB0F0A93A12F88
:10165800A7DF0FC00E94EB0F1A930A93EA85F0E008
:10166800FA93EA93E0E0F0E0FA93EA93A0E0B0E0BE
:1016780030DE1F5F33231AF4E12FF0E003C00E942D
:10168800F00FFD01EE0FFF1F31962E0F3F1F0117C0
:1016980098F6C1CF0E94B51238C0AA93EA81EA939E
:1016A800EA81EA93EA81EA93AFE8A7DF8BC1BA93AC
:1016B800AA930E94B012A985A03818F4A885A0346E
:1016C80010F0E0E020C0AE81BF810D911C91AC818B
:1016D800BD812D913C91D801E8E6F1E00E945112BC
:1016E8008F01D901E9E6F1E00E9451129F01AE8114
:1016F800BF810D931C93AC81BD812D933C93F9015F
:10170800D8010E9430120E94B7122A960895AA930F
:101718000E94AE120E94F50FFE013B96FA93EA93DF
:10172800DE011B96C4DFE03011F40C94080CEC8544
:10173800E0938602EB85E09387020E94F50FEB8524
:10174800FC85FA93EA93EA85EA93E8E8F2E0FA93EB
:10175800EA93A9E8B2E089DD0E94F50FE985FA85E8
:10176800FA93EA93EA85EA93EAE8F2E0FA93EA93CD
:10177800ABE8B2E07ADD50918402E52F5150E030B9
:1017880011F40C94080CEE81E03009F43DC0EE81B0
:10179800E150EE830E94DB0F0E94F50F1A930A9323
:1017A800E02FFF27662777270E94BC100E94671248
:1017B800E12FFF27662777270E94BC10DF01CB01A6
:1017C8000E94420EA1EEBEE285E692E40E94461116
:1017D8000E948510FA93EA93EF85F889FA93EA93C1
:1017E800AF85B88976DD1F5F33231AF4E12FF0E067
:1017F80003C00E94F00FFD01EE0FFF1F31962E0F60
:101808003F1F011748F6B9CF0E94B5122D960895CB
:10181800AA930E94B012AF81A03818F4AE81A03408
:1018280020F00E94B7120C94020EED81E03019F0FE
:10183800EC81E03009F42BC03E81E32FAC81EA0F44
:10184800EC83EF81AD81EA0FED83EC813E17F8F46C
:10185800E31B2E2F293008F028E01F81ED811E1789
:10186800A0F4E11B0E2F093008F008E01A933A9310
:101878000A932A93E0E0EA93EDE8F2E0FA93EA9318
:10188800A7E00E941B04100FE9CF320FDECF0E94A1
:10189800B7120C94020EAA93DE01E6DBEB81EA9301
:1018A800EB81EA93AD81EB81EA1BEF5FEA93AD81AF
:1018B800EB81EA1BEF5FAE2FABDF0C94400EAA93CF
:1018C8000E94B01210917C02E09184020E2FE091E8
:1018D80085023E2FE0918C02E0937C020E949D0ECF
:1018E800EE81EA93EE81EA93EE81EA93A0E485DE45
:1018F80010937C0200938402309385020E94B712F1
:1019080027960895BA93AA93B981A881109631F0C1
:10191800FC81EB816A8161931197E9F7EB81FC8186
:1019280025960895AA93E881F0E0E85CFD4FA4911C
:10193800E9810E94051222960895AA931A93E981D3
:10194800E63011F0E93019F410917C0209C0E83052
:1019580019F410917D0204C0E730A1F410918C02B3
:10196800E0917D02E03049F0103019F0EFEF188176
:1019780029C0EA81E095188125C0103019F4E0E00B
:10198800188120C0EA8118811DC0BA93AA93EA8100
:10199800E13021F4E881F981E49114C0E23029F4BE
:1019A800A881B9810E9483120DC0E33041F4A88157
:1019B800B981E0919502F0919602099503C0A8813A
:1019C800B981EC9123960895AA93EB81E03029F42C
:1019D800E881A981BA81EC9314C0E23031F4E8813E
:1019E800A981BA810E948F120CC0E33051F4E981B9
:1019F800FA81FA93EA93AA81E0919702F09198020A
:101A080009950C94400E0E946C127B816A81F981C1
:101A1800E88177FB770F67FD7160972F9E5781F0FC
:101A280078F0983190F4AA27BB27882708948795DF
:101A3800B795A7959A95D1F7EA23FB23682305C0A4
:101A4800E8947727EE27FF2766276F77769508F4BF
:101A5800606877F9A991B99189919991EA17FB077B
:101A68006807790797FB08950E94FA0F0E94070DEF
:101A78000E94621219F40E94FD0FFEC0E6F70E9450
:101A880000100E94EF10F8C00E946C1224971A935D
:101A980010E00E940610E3E8F9EF62E27EE30E949C
:101AA80046110E940B10E0DF0E9406100E94760F7C
:101AB8000E940B100E947B0F09F010F40C946D0D1E
:101AC8000E941010A0E0B0E080E09FE30E94151093
:101AD80011E00E940610E0E0F0E060E87EE30E947A
:101AE800D91109F010F40C94810D0E940610E0E061
:101AF800F0E060E07FE30E941510103041F00E9492
:101B080010100E945010ED83FE836F8378870E9427
:101B180010100E9406100E944611E983FA836B8315
:101B28007C83A1EBB4EC86E292E40E944611DF01CB
:101B3800CB01EDE1F5EE6DE272E40E94760F0E94B2
:101B48001C10ACE4B3E584E091E40E94F6100E9416
:101B580006100E9446117F936F93FF93EF93E981DC
:101B6800FA816B817C81A1E1BDEE8EED9FE30E943D
:101B7800F6100E941C10AEE5BBE788EA9FE30E94BE
:101B8800F610AF91BF918F919F910E949411188187
:101B9800299608950E94FA0FEBEDFFE069EC7FE3C8
:101BA8000E94EF10DF01CB016FDF66C00E94231097
:101BB8000E942B100E94820F0E94FD0FA5E6B0ED37
:101BC8008BEC90E40E9430100E942B100E9446116A
:101BD8007F936F93FF93EF930E94FD0FA0E0BDE604
:101BE80089E291E40E94F6100E94870F0E9430104B
:101BF800AF91BF918F919F910E949411289608955B
:101C08000E94FA0FEDECF3E164ED7EE30E94D91136
:101C180020F40E94870FCADF2FC00E94870FEAE7CF
:101C2800F2E86AE170E40E94D91109F010F40C940A
:101C3800280E0E9400100E943910ABEDBFE089EC1D
:101C48009FE30E94760F18C00E9400100E94EF10B8
:101C58007F936F93FF93EF930E9400100E94F610FA
:101C6800AF91BF918F919F910E943910ABEDBFE06A
:101C780089E49FE30E94F610249608950E94231099
:101C88000E94A012E9F4E885F9856A857B850E949F
:101C9800A01229F4EFEFFFEF6FE77FE743C0A885B5
:101CA800B9858A859B850E94A8122CF4EBEDFFE08C
:101CB80069EC7FE337C0EBEDFFE069EC7FEB32C006
:101CC800EC81FD816E817F81A885B9858A859B8598
:101CD8000E9494110E9462120E942B100E94A81266
:101CE80064F4AB85AA2322F00E94870F89DF1AC00B
:101CF8000E943F100E94501015C0AB85AA234AF0DD
:101D08000E943F10ABEDBFE089E490E40E94760F9B
:101D180009C00E94870F74DFABEDBFE089E490EC47
:101D28000E94F6102C960895D8010E9446100C9433
:101D38007F03E1E0E0938402EFEFE09385020895EA
:101D48000E944307F1CFE0E0EA93EA930895EA930B
:101D5800AFE30C944307EFE7EA93A0E00C94430742
:101D6800E0938502EAE0EA930895EFE3EA93EFE16E
:101D7800EA93AEE10E94510BD7CFEA93E0E0F0E09E
:101D8800FA93EA930895EAE0EA93EA930895E4E17E
:101D9800EA93EA930895EA93E0E0EA93EAE0EA93A3
:101DA8000895C198EFEFEABBE881EBBB0E949E0261
:101DB8000C94A202E695E695E695AE2F0C94DE0209
:101DC8000E9402030C94ED02F0E0AE0FBF1F0895CD
:101DD800F0E00E9436120895EA0FFB1FEE83FF839E
:101DE8000895EC85EA93EF81F8853196EF83F887BB
:101DF8003197FA93EA93A0E00C94E80CEC85EA9307
:101E0800EF81F8853196EF83F88731970895662733
:101E18007727DF01CB010C94C90C5A93AA850C943F
:101E2800A10C0A930395E889EA935A9308950A93B3
:101E38000395A8890E941403E42308955E2FEC8576
:101E4800EA93AF81B885882799270E94C90C1E2E6E
:101E580008950A930395E889EA93EE85EA93E9855C
:101E6800FA853196E987FA873197D1CFF0E0EA0F02
:101E7800FB1F0895BA93AA93A881B9810E94A4125E
:101E880008950E94AE12E0918002F09181020895B7
:101E9800F8010F5F1F4F04900895E0918002F091C0
:101EA80081023196E4910895AE81AF5FAE83A1506F
:101EB800E0918402AE1708953A93AA850C941B0703
:101EC800F0E0AE1BBF0B0895A985BA85EA0FFB1F8A
:101ED800E987FA870895E985FA85EA1BFB0BE98704
:101EE800FA8708950E9476120E94EF100895E0E0A4
:101EF800F0E060E07FE30E94D91108950E94461146
:101F08000E94621208950E945D120895A885BB2759
:101F1800882799270E9473120E944611DF01CB017E
:101F28000C941509EA1BFB0B0F01DF01EB85FC85FF
:101F3800AE17BF070895E985FA85E015F1050895FC
:101F48000A93A22F0C941C060A93A22FA2500E9457
:101F5800C803AE2FEE81EA170895EB85FC85AE170E
:101F6800BF070895E985FA85EA17FB0708950A93DC
:101F7800A42F0E941C06AF81A23008950A93A42FB3
:101F8800AE5F0E94C803AE2FEE81EA170895EA9368
:101F9800A22F0E94C803AE2FEE81EA170895EA9394
:101FA800A42F0E94C803AE2FEE81EA170895EF5FB1
:101FB8000E2FE02FF0E0A5E0B0E0AE1BBF0BFD0157
:101FC8000E9415120E941A129F0110E00895E985D7
:101FD800EA93E985EA9308950150A12FBB27E02FE2
:101FE8006FCFEC85EA93EC85EA9308950E946C1212
:101FF8008ACF0E9458120895FCDFA0E0B0E080E884
:102008009FE30895AD81BE818F8198850895ED8302
:10201800FE836F837887F6CFED81FE816F817885A7
:1020280008950E94EF10ED83FE836F8378870895EB
:10203800A981BA818B819C810E94461108950E94D2
:102048006C122497EC81FD816E817F810895AC81AB
:10205800BD818E819F8108950E944611AEE4BFE83C
:102068008AE491E40E94F61008950E949411DF0119
:10207800CB010C94DA0DBDDF0E945010DF01CB01BB
:102088000C94040E109639F080ED97E00197F1F763
:10209800A8951197C9F7089530976040704009F0E6
:1020A80070580895552342F4503811F4E0FF04C0E5
:1020B8003196691F791F6BF050E8572711F45F9329
:1020C800CFC05F3F31F0660F000C57956795752FAD
:1020D80008955F9300200AF0CFC0C8C050E8192EB9
:1020E8001522880F991F9527550F879550E8072EB9
:1020F8000522660F771F7527550F67950895689411
:1021080001C0E8945F93F2DF703818F07F3F08F45D
:10211800A7C056E1571BAAF4519558300EF4593010
:1021280030F0EFEFFFEF6FEF7FE777F91AC077270F
:102138005523B9F0EE0FFF1F661F771F5A95D1F789
:1021480010C07727583028F0EF2FF62F672F5850F8
:10215800F9CF552331F076956795F795E7955A9518
:10216800D1F700200AF445D15F910895689401C021
:10217800E894309760407040B1F0002426F077234F
:1021880012F4009436D1172E7EE1112032F07A95A0
:10219800EE0FFF1F661F111CF9CFEF2FF62F612DD1
:1021A8005F938ADF5F9108954F93AF01FD01DA01D4
:1021B800AB01BC01CA01402D012C142E4F9108958A
:1021C800EA0FFB1F681F0895E095F0956095EF5F93
:1021D800FF4F6F4F08955F9381DF903871F150E89A
:1021E800152604C05F937ADF903839F1703821F1F1
:1021F800572F591B2BF112F4D7DFFACF583118F0AB
:10220800AA27BB278827583028F0AB2FB82F882754
:102218005850F9CF552329F08695B795A7955A9523
:10222800D9F7502D512572F0CBDF38F46795F79523
:10223800E795739513F420C0B7DF3EDF5F910895EB
:10224800D8F7FBCFEA1BFB0B680B51F010F4009496
:10225800BBDF662392F3EE0FFF1F661F7A95CBF75D
:10226800EE27FF27662777275F910895EFEFFFEFA7
:102278006FE77FEF5F910895EFEFFFEF6FE77FE77D
:102288005F9108955F932ADF703851F3903841F3D6
:1022980001240894791F23F41CF300203AF3ECCFAF
:1022A8000F921F932F933F934F931127222799271C
:1022B800689FA0018F9F302D410D591F6B9F300DD6
:1022C800411D591F8E9F27D0BF9F25D06A9F23D0BD
:1022D800BE9F1DD0AF9F1BD0AE9F110D291F391F68
:1022E800491F591FE32FF42F652F522F4F913F910C
:1022F8002F911F910F9066232AF0550FEE1FFF1F95
:10230800661F02C073954BF2CDDE5F910895100DE4
:10231800211D391F02C0200D311D491F591F089565
:102328005F93DCDE703821F411200AF49FCFA4CF2C
:10233800903809F495CF01240894970B1BF4D4F333
:102348000020F3CF792F1F932F933F934F9311249E
:102358001127222733274427552790E2AE17BF07B6
:102368008607410730F0AE1BBF0B860B410B089464
:1023780001C08894551F221F331F111CAA1FBB1FA1
:10238800881F441F9A9551F7F901612D4F913F918C
:102398002F911F91662332F0550FEE1FFF1F661F06
:1023A8007A9543F27FDE5F91089599239AF0772317
:1023B80042F0971748F029F4AE17BF07860720F0B8
:1023C80031F09894889408959894089408951894EE
:1023D800889408957723C2F7971798F3A9F7EA170F
:1023E800FB07680788F399F3ECCFF195E195F04086
:1023F8000895F09560957095E195FF4F6F4F7F4F69
:102408000895EE230E2EEA2F19F0EE0F0A94E9F73D
:102418000895EE230E2EEA2F19F0E6950A94E9F7AF
:102428000895EE0FFF1FEE0FFF1F0895F595E7952E
:10243800F595E7950895FE2FFF0FFF0B6F2F7F2F60
:1024480008956F2F660F660B762F0895BA2FBB0F6E
:10245800BB0B8B2F9B2F0895EA17FB07E1E008F4CD
:10246800EE270895FA9FF02DEB9FF00DEA9FE02DDF
:10247800F10D08950024112490E1AA0FBB1F001C40
:10248800111C0E1A1F0A18F40E0E1F1E01C0A1609F
:102498009A9599F7FD01D0010895ECDFFD010895A3
:1024A800ED91FC9111970895E881F9816A817B810A
:1024B8000895A881B9818A819B810895E883F98369
:1024C8006A837B8308957A936A93FA93EA930895CB
:1024D8009A938A93BA93AA930895689401C0E8944A
:1024E80001D047DE182E862F612D192E972F712DBA
:1024F8001B2EBF2FF12D1A2EAE2FE12D0895E19935
:10250800FECFFF93FFB7F894AEBBBFBBE09AEDB325
:10251800FFBFFF910895E19B02C0A895FCCF9FB72C
:10252800F894AEBBBFBBE09A8DB3E81719F0EDBBCA
:10253800E29AE19A9FBF08953097604070400895ED
:1025480000240A160B06089500240A160B0608062E
:10255800090608955A934A933A932A931A930A9329
:1025680008955D814C813B812A81198108810895F4
:00000001FF
