:0E0000000C943D000C946A000C9472000C9459
:10000E008B000C9400000C9400000C9400000C94D7
:10001E0000000C9400000C9400000C9400000C9452
:10002E0000000C9400000C9400000C9400000C9442
:10003E0000000C9400000C9400000C9400000C9432
:10004E0000000C9400000000000080C001002D4E46
:10005E00414E00494E4600000300050054000200C8
:10006E0060025800010064025A000000F894EE2766
:10007E00ECBBF1E0FBBFEBBFE5BF8DE0A2E0BB2721
:10008E00ED938A95E9F780E098E0A0E6ED9301976D
:10009E00E9F7E6E6F0E085919591009761F0A5917C
:1000AE00B59105901590BF01F00105900D92019745
:1000BE00E1F7FB01F0CFEFE5EDBFE8E0EEBFC0E604
:1000CE00D2E00C94A8000E94930111F0EAE001C066
:1000DE00E1E05E0E07C00E94930111F0EAE001C05C
:1000EE00E1E05E1AAAE0B0E00E94B101E991EFBF33
:1000FE00F991E991B991A991999189917991699122
:10010E00F9901990099018951A92AA93EA93FA9376
:10011E00EFB7EA93E1E0F0E0E619F7093F01E0E01E
:10012E00AB99E1E0A1E00E94BB01EA1B11F4AB9890
:10013E0001C0AB9AE991EFBFF991E991A99119909C
:10014E001895E0E0EABBEBBBE7BBE8BBEFEFE4BB27
:10015E00E0E0E5BBE1BBE2BBEBB7E06EEBBFEAE094
:10016E00E5BFE0E0E4BFE0EEEABFA0E179D078942D
:10017E00E0E0EA93A0E035D0E52DF0E0E7FDFFEFFB
:10018E00FA93EA93D8010E946501D80158D0A0E2F3
:10019E0041D0A0E23FD0A2E3B0E00E94B101E8CF8F
:1001AE00FFCFAA93E5B3EF70AE2FE881E07FEA2B85
:1001BE00E5BB8DE08A95F1F7AA9A8DE08A95F1F765
:1001CE00AA988DE08A95F1F777C0AA93A881E9DF06
:1001DE00E881E295E883A881E4DF85E88A95F1F766
:1001EE006BC0AA93E881F0E0E05AFD4FE081A9814F
:1001FE00AE0FEBDF4980988022960895A2E00E9410
:10020E00A301ACE0E2DFA1E00E94A301E0E09E2E9C
:10021E004E2E0895AA93A881AA3011F0481448F0E2
:10022E00E0E0EA939394A92DDCDFA881AA3009F4CB
:10023E0043C04394A89AA881C8DFA8983DC0BA933A
:10024E00AA931A93A981BA81ED91A983BA831E2F1D
:10025E00E03019F0A12FDEDFF5CF18812396089537
:10026E00AA93E4B3E06FE4BBA29AA09AA19AAA98CB
:10027E00A898A9988880E881E058E0936202E88106
:10028E00E054E0936302A4E1B0E00E94B1010E9449
:10029E00A9010E94A9010E94A901A0E282DF88ECB7
:1002AE0090E00197F1F7A8E290DFA4E08EDFA5E8D9
:1002BE008CDFA6E08ADFA2DF21960895BA93AA9377
:1002CE00A991B991E991F99130962AF4E095F095BA
:1002DE0031966DE26D93E89480E197E20DD088EE51
:1002EE0093E00AD084E6992707D08AE005D06E2FD6
:1002FE0010D066276C9308956627E817F90720F04B
:10030E006395E81BF90BC9F7662311F416F00895EF
:10031E006894605D6D9308950A921A92FA926A93A8
:10032E007A938A939A93AA93BA93EA93FA93EFB72E
:10033E00EA93062C072808950E94EC00A3E0B0E093
:10034E000C94B101A0E30E94D80088EC90E00197D4
:10035E00F1F70895109639F080ED97E00197F1F7D7
:10036E00A8951197C9F708951A2EAE2FE12D08956D
:00000001FF
