:100000000C943A000C9400000C9400000C94000036
:100010000C9400000C9400000C9400000C94000060
:100020000C9400000C947D000C9400000C9467006C
:100030000C9400000C9400000C9400000C94000040
:100040000C9400000C9400000C9400000C94000030
:100050000C9400003F065B4F666D7D077F6F777CD9
:10006000395E797100000000000000000800040003
:1000700064000000F894EE27ECBBF1E0FBBFEBBF9F
:10008000E5BF8DE0A2E0BB27ED938A95E9F780E01C
:1000900098E0A0E6ED930197E9F7ECE6F0E08591B2
:1000A0009591009761F0A591B59105901590BF01CC
:1000B000F00105900D920197E1F7FB01F0CFEFE51C
:1000C000EDBFE8E0EEBFC0E6D2E00C949B00AA933F
:1000D000BA93EA93FA93EFB7EA93E3E9E2BFF40144
:1000E0003196A7E0B0E00E9468014F01E991EFBFAF
:1000F000F991E991B991A9911895EA93FA93EFB71B
:10010000EA93E5E8EDBDEEEEECBDF30131963F017B
:10011000E1E0F0E0EA15FB0531F4F20131972F013F
:10012000AA24BB2403C0E1E0F0E05F01E991EFBF46
:10013000F991E9911895EFEFE7BBE0E0E8BBEFEF4D
:10014000E4BBE0E0E5BBE4E0E3BFE3E9E2BFE0E01D
:10015000ECBFEFBDE3E0EEBDEBE0EDBDECEDECBDE3
:10016000E0E0E7BDE6BDEBBDEABDE9BDE8BDE5E029
:10017000E9BF78940024401450041CF4EFE0F7E247
:100180002F01EFE0F7E2E615F70514F46624772473
:10019000082C092821F4EEEFE8BBD20141D0E1E0C0
:1001A000F0E0E815F90521F4EDEFE8BBD20141D00C
:1001B000E2E0F0E0E815F90521F4EBEFE8BBD2014D
:1001C00046D0E3E0F0E0E815F90521F4E7EFE8BBFD
:1001D000D2014BD0E4E0F0E0E815F90521F4EFEEB0
:1001E000E8BBD3011DD0E5E0F0E0E815F90521F406
:1001F000EFEDE8BBD3011DD0E6E0F0E0E815F9052E
:1002000021F4EFEBE8BBD30122D0E7E0F0E0E81502
:10021000F90521F4EFE7E8BBD30127D0ABCFFFCF3F
:10022000E8EEF3E00E945501EC5AFF4F049005BA46
:100230000895E4E6F0E00E945501DF01EAE0F0E015
:100240000E945A01EC5AFF4F049005BA0895EAE063
:10025000F0E00E945501DF01EAE0F0E00E945A015F
:10026000EC5AFF4F049005BA0895EAE0F0E00E94CE
:100270005A01EC5AFF4F049005BA0895F195E195A3
:10028000F04008950024112490E1AA0FBB1F001C28
:10029000111C0E1A1F0A18F40E0E1F1E01C0A160B9
:1002A0009A9599F7FD01D00108951CD0EBDF0EF46B
:1002B000E5DF0895E894B7FF04C0A095B0951196C6
:1002C0006894F7FDDBDFDEDFFD010EF4D7DF089574
:1002D000E894F7FF02C0D2DF6894EA23FB230EF410
:1002E000CDDF0895E894F7FF02C0C8DF6894B7FF38
:1002F00006C0A095B095119600F8039400FA0895F1
:00000001FF
