:0A0000000C943F000C9400000C94D7
:10000A0000000C9400000C9400000C9400000C9466
:10001A0000000C9400000C9400000C9400000C9456
:10002A0000000C94A0000C9400000C9400000C94A6
:10003A0000000C9400000C9400000C9400000C9436
:10004A0000000C9400000C9400007D007B007700F7
:10005A006F005F003F001027E80364000A000100F8
:10006A000010000110000100FFFFFF00030005005F
:10007A0072000000F894EE27ECBBF1E0FBBFEBBF87
:10008A00E5BF8DE0A2E0BB27ED938A95E9F780E012
:10009A0098E0A0E6ED930197E9F7E6E7F0E08591AD
:1000AA009591009761F0A591B59105901590BF01C2
:1000BA00F00105900D920197E1F7FB01F0CFEFE512
:1000CA00EDBFE8E0EEBFC0E6D2E00C94CF00AA9301
:1000DA00E881E03011F4EFE32CC0A881A13011F4DB
:1000EA00E6E027C0A881A23011F4EBE522C0A8817E
:1000FA00A33011F4EFE41DC0A881A43011F4E6E6A0
:10010A0018C0A881A53011F4EDE613C0A881A63065
:10011A0011F4EDE70EC0A881A73011F4E7E009C099
:10012A00A881A83011F4EFE704C0A881A93009F426
:10013A00EFE6219608950A921A92FA926A937A93AE
:10014A008A939A93AA93BA93EA93FA93EFB7EA93A4
:10015A00E3E9E2BFEFEFFFEFE615F70569F0A52D3A
:10016A00A053B5DFE5BBF301A4E5B0E0EE0FFF1F36
:10017A00EA0FFB1F049008BAE991EFBFF991E991E0
:10018A00B991A9919991899179916991F990199067
:10019A0009901895EFEFE7BBE0E0E8BBEFEFE4BBAF
:1001AA00E0E0E5BBE4E0E3BFE3E9E2BFE0E0ECBFA7
:1001BA00E1E0E9BF7894E0E0EBB9E8E1EAB9E6E822
:1001CA00E0BDE0E0E0BDE3E3E9B9E0E0E8BB14D07C
:1001DA005E2EE0E35E1618F0E9E3E51508F40AC0BE
:1001EA00F30131963F01E5E0F0E0E615F70514F476
:1001FA0066247724ECCFFFCF5F9BFECFECB1089546
:00000001FF
