:0E0000000C943E000C9400000C9400000C9434
:10000E0000000C9400000C9400000C9400000C9462
:10001E0000000C9400000C9400000C9400000C9452
:10002E0000000C9400000C9400000C9400000C9442
:10003E0000000C9400000C9400000C9400000C9432
:10004E0000000C9400001027E80364000A00010071
:10005E000010000110000100496E20746865206ECA
:10006E00616D65206F6620476F640D0A0000F8947D
:10007E00EE27ECBBF1E0FBBFEBBFE5BF8DE0A2E0EE
:10008E00BB27ED938A95E9F780E098E0A0E6ED9323
:10009E000197E9F7EFE5EDBFE8E0EEBFC0E6D2E08D
:1000AE000C946300AA93A881AA3010F4A05D02C03C
:1000BE00A881A95C8CD090C0659785E1A0E0B0E0E6
:1000CE00E6E6F0E00E94100120E030E0E0E0EABB5E
:1000DE00EBBBEBB9E8E1EAB9E6E8E0BDE0E0E0BD94
:1000EE00E3E3E9B900E010E0DE01A00FB11FEC91EF
:1000FE00E03041F0DE01A00FB11FAC9168D00F5F70
:10010E001F4FF2CF2297E0E0C899E1E0A1E0EA9F0D
:10011E00B001E0E0C999E1E0A2E00E94F500E0E064
:10012E00CA99E1E0A4E00E94F500E0E0CB99E1E09D
:10013E00A8E00E94F500E0E0CC99E1E0A0E10E9489
:10014E00F500E0E0CD99E1E0A0E20E94F500E0E0EC
:10015E00CE99E1E0A0E40E94F500E0E0CF99E1E065
:10016E00A0E8EA9FF001E60FF71FE883F983A88164
:10017E00B9812A173B0741F123972B813C81AB8133
:10018E00BC81EAE0F0E00E940D01EA83AB81BC8104
:10019E00EAE0F0E00E94FA00DF01EAE0F0E00E94FF
:1001AE000D01E983AB81BC81E4E6F0E00E94FA0028
:1001BE00E883A88177DFA98175DFAA8173DFADE0BF
:1001CE0006D0AAE004D0239622969CCFFFCFAA9306
:1001DE005D9BFECFE881ECB921960895EA9FF00170
:1001EE006E0F7F1F08950024112490E1AA0FBB1FEC
:1001FE00001C111C0E1A1F0A18F40E0E1F1E01C031
:10020E00A1609A9599F7FD01D0010895ECDFFD01EB
:10021E000895AC0FBD1F05900D928A95E1F70895D4
:00000001FF
