:080000000C943A000C9400007E
:100008000C9400000C9400000C9400000C94000068
:100018000C9400000C9400000C9400000C949900BF
:100028000C9400000C9400000C9400000C94000048
:100038000C9400000C9400000C9400000C94000038
:100048000C9400000C9400000C9400004D6168644E
:100058006920416D697269000500000080C00400D4
:10006800040060000200600264000000F894EE27BB
:10007800ECBBF1E0FBBFEBBFE5BF8DE0A2E0BB2727
:10008800ED938A95E9F780E098E0A0E6ED93019773
:10009800E9F7E6E6F0E085919591009761F0A59182
:1000A800B59105901590BF01F00105900D9201974B
:1000B800E1F7FB01F0CFEFE5EDBFE8E0EEBFC0E60A
:1000C800D2E00C94CC00BA93AA931A930A9300E056
:1000D80010E0AFD0F801EC5AFF4FE491E03009F19D
:1000E800EC81EA93AB8198D0F8010F5F1F4FEC5A6F
:1000F800FF4FA491A8D0AC81BD811F9734F4EC8147
:10010800FD813196EC83FD830BC0E0E0EC83ED8349
:10011800AA81BB81E1E0F0E0EA1BFB0BEA83FB83E9
:10012800D9CF19810881269608950A921A92FA92CF
:100138006A937A938A939A93AA93BA93EA93FA93CF
:10014800EFB7EA93E5E8EDBDEEEEECBD002404144C
:10015800050424F4F20131972F0108C0EFE0F0E024
:100168002F01E1E0F0E0E619F7093F015A924A92BF
:10017800D301A9DFE991EFBFF991E991B991A9916B
:100188009991899179916991F990199009901895A7
:10019800E0E0EABBEBBBE7BBE8BBEFEFE4BBE0E0CA
:1001A800E5BBE1BBE2BBEFBDE4E0EEBDE5E8EDBDDC
:1001B800EEEEECBDE0E0E7BDE6BDEBBDEABDE9BDB6
:1001C800E8BDE4E0E9BFA0E152D07894A1E0B0E056
:1001D8000E947201FBCFFFCFAA93E5B3EF70AE2F59
:1001E800E881E07FEA2BE5BB8DE08A95F1F7AA9AD2
:1001F8008DE08A95F1F7AA988DE08A95F1F760C0AD
:10020800AA93A881E9DFE881E295E883A881E4DF81
:1002180085E88A95F1F754C0AA93E881F0E0E05A9E
:10022800FD4FE081A981AE0FEBDF9980888022968F
:100238000895A2E047D0ACE0E3DFA1E043D0E0E0DE
:100248008E2E9E2E0895AA93A881AA3011F09B1491
:1002580040F0E0E0EA938394A82DDEDFA881AA307D
:1002680079F19394A89AA881CBDFA89829C0AA937A
:10027800E4B3E06FE4BBA29AA09AA19AAA98A898BE
:10028800A998B880E881E058E0936202E881E054D8
:10029800E0936302A4E1B0E00E94720118D017D085
:1002A80016D0A0E299DF88EC90E00197F1F7A8E278
:1002B800A7DFA4E0A5DFA5E8A3DFA6E0A1DFB9DFFB
:1002C800219608959DDFA3E0B0E00C947201A0E3AD
:1002D80083DF88EC90E00197F1F70895109639F0E4
:1002E80080ED97E00197F1F7A8951197C9F7089560
:00000001FF
