:0C0000000C9447000C9400000C940000CD
:10000C000C9400000C9400000C9400000C94000064
:10001C000C9400000C9400000C94A8000C940000AC
:10002C000C9400000C9400000C9400000C94000044
:10003C000C9400000C9400000C9400000C94000034
:10004C000C9400000C9400007D007B0077006F0086
:10005C005F003F001027E80364000A000100001055
:10006C000001100001000000FFFFFFFFFFFFFFFF7A
:10007C00FFFFFFFF0200040072000C00600274001E
:10008C000000F894EE27ECBBF1E0FBBFEBBFE5BF43
:10009C008DE0A2E0BB27ED938A95E9F780E098E02C
:1000AC00A0E6ED930197E9F7E0E8F0E085919591F2
:1000BC00009761F0A591B59105901590BF01F001E5
:1000CC0005900D920197E1F7FB01F0CFEFE5EDBF45
:1000DC00E8E0EEBFC0E6D2E00C94E400AA93E8811D
:1000EC00E03011F4EFE32CC0A881A13011F4E6E06C
:1000FC0027C0A881A23011F4EBE522C0A881A3305F
:10010C0011F4EFE41DC0A881A43011F4E6E618C088
:10011C00A881A53011F4EDE613C0A881A63011F426
:10012C00EDE70EC0A881A73011F4E7E009C0A88163
:10013C00A83011F4EFE704C0A881A93009F4EFE668
:10014C00219608950A921A92FA926A937A938A9354
:10015C009A93AA93BA93EA93FA93EFB7EA93ECE3E0
:10016C00EDBDE0EBECBD0E9470010E94A201EF3FDF
:10017C00AFEFFA0771F00E947001AC91AFDFE5BBF5
:10018C00F201A4E5B0E0EE0FFF1FEA0FFB1F049095
:10019C0008BAD2011196E6E0F0E00E9494012F011A
:1001AC00E991EFBFF991E991B991A991999189914F
:1001BC0079916991F99019900990189505E010E0E2
:1001CC00EFEFE7BBE0E0E8BBEFEFE4BBE0E0E5BB63
:1001DC00EBB9E8E1EAB9E6E8E0BDE0E0E0BDE3E375
:1001EC00E9B9E0E0EFBDE2E0EEBDECE3EDBDE0EB44
:1001FC00ECBDE0E0E7BDE6BDEBBDEABDE9BDE8BDA9
:10020C00E4E0E9BF7894219761D0E883A881A0331A
:10021C0010F0AA3308F057C0E5E0F0E0E017F10762
:10022C00D1F4EFEFFFEFE0936002F0936102E2E6AE
:10023C00F2E00E947801E4E6F2E00E947801E6E642
:10024C00F2E00E947801E8E6F2E00E947801EAE62A
:10025C00F2E00E947801E0916802F0916902E0936B
:10026C006A02F0936B02E0916602F0916702E093F0
:10027C006802F0936902E0916402F0916502E093E8
:10028C006602F0936702E0916202F0916302E093E0
:10029C006402F0936502E0916002F0916102E093D8
:1002AC006202F0936302E881F0E0F097E093600261
:1002BC00F093610201501040EFEFFFEFE017F107F0
:1002CC0011F405E010E021969ECFFFCF5F9BFECF8F
:1002DC00ECB10895F201A0E6B2E0EE0FFF1FAE0FF5
:1002EC00BF1F0895AFEFBFEFA083B1830895F195C1
:1002FC00E195F04008950024112490E1AA0FBB1F52
:10030C00001C111C0E1A1F0A18F40E0E1F1E01C021
:10031C00A1609A9599F7FD01D0010895E894B7FF73
:10032C0004C0A095B09511966894F7FDE0DFE3DF6B
:10033C00FD010EF4DCDF0895ED91FC911197089509
:00000001FF
