:0E0000000C9436000C9400000C9400000C943C
:10000E0000000C9400000C9400000C9400000C9462
:10001E0000000C9400000C9400000C9400000C9452
:10002E0000000C9400000C9400000C9400000C9442
:10003E0000000C9400000C9400000C9400000C9432
:10004E0000000C9400004D4943204C41420080C0FA
:10005E00080060025400020068025C000000F89480
:10006E00EE27ECBBF1E0FBBFEBBFE5BF8DE0A2E0FE
:10007E00BB27ED938A95E9F780E098E0A0E6ED9333
:10008E000197E9F7EEE5F0E085919591009761F023
:10009E00A591B59105901590BF01F00105900D92B7
:1000AE000197E1F7FB01F0CFEFE5EDBFE8E0EEBF22
:1000BE00C0E6D2E00C946300A0E176D0E5E09FD0DC
:1000CE00A9E44CD0E7E09BD0A5E548D0E9E097D075
:1000DE00A3E544D0EBE093D0A4E540D0E5E0EA936D
:1000EE00A1E025D0A0E6B2E04ED0FFCFFFCFAA937D
:1000FE00E5B3EF70AE2FE881E07FEA2BE5BB8DE034
:10010E008A95F1F7AA9A8DE08A95F1F7AA988DE073
:10011E008A95F1F772C0AA93A881E9DFE881E2958A
:10012E00E883A881E4DF85E88A95F1F766C0AA9393
:10013E00E881F0E0E859FD4FE081A981AE0FEBDFD9
:10014E005980488022960895A2E05CD0ACE0E3DFAF
:10015E00A1E058D0E0E04E2E5E2E0895AA93A8811D
:10016E00AA3011F0571448F0E0E0EA934394A42D1E
:10017E00DEDFA881AA3009F440C05394A89AA88162
:10018E00CADFA8983AC0BA93AA931A93A981BA81E2
:10019E00ED91A983BA831E2FE03019F0A12FDEDF77
:1001AE00F5CF188123960895AA93E4B3E06FE4BBCC
:1001BE00A29AA09AA19AAA98A898A9987880E8815C
:1001CE00E058E0936A02E881E054E0936B02A4E108
:1001DE00B0E00E9415011BD01AD019D0A0E287DF23
:1001EE0088EC90E00197F1F7A8E295DFA4E093DFA9
:1001FE00A5E891DFA6E08FDFA7DF21960895EA93A9
:10020E00A0E095CF88DFA3E0B0E00C941501A0E349
:10021E006EDF88EC90E00197F1F70895109639F0B3
:10022E0080ED97E00197F1F7A8951197C9F708951A
:00000001FF
