:060000000C942E000C948C
:1000060000000C9400000C9400000C9400000C946A
:1000160000000C9400000C9400000C9400000C945A
:1000260000000C9400000C9400000C9400000C944A
:1000360000000C9400000C9400000C9400000C943A
:1000460000000C9400000C9400000C940000040ABC
:1000560011111F111100F894EE27ECBBF1E0FBBF64
:10006600EBBFE5BF8DE0A2E0BB27ED938A95E9F7EC
:1000760080E098E0A0E6ED930197E9F7EFE5EDBFA4
:10008600E8E0EEBFC0E6D2E00C944900EFEFE4BB37
:10009600E1BB0EEF10E0173078F402BB000F0160F1
:1000A600E12FF0E0EC5AFF4F049005BAA5E0B0E06E
:1000B6000E9461001F5FEFCFECCFFFCF109639F0A3
:1000C60080ED97E00197F1F7A8951197C9F7089584
:00000001FF
