:060000000C9438000C9482
:1000060000000C9400000C9400000C9400000C946A
:1000160000000C9400000C9400000C9400000C945A
:1000260000000C9400000C9400000C9400000C944A
:1000360000000C9400000C9400000C9400000C943A
:1000460000000C9400000C9400000C94000080C08A
:1000560001002D4E414E00494E460000020060024E
:1000660054000100640256000000F894EE27ECBB31
:10007600F1E0FBBFEBBFE5BF8DE0A2E0BB27ED9350
:100086008A95E9F780E098E0A0E6ED930197E9F715
:10009600E2E6F0E085919591009761F0A591B59122
:1000A60005901590BF01F00105900D920197E1F7BB
:1000B600FB01F0CFEFE5EDBFE8E0EEBFC0E6D2E032
:1000C6000C9478000E94B9052A97EA85FB856C8511
:1000D6007D850E94B405E2E0EA93DE0115960E9452
:1000E6000402DE014FD12E9608950FEF1FEF2FEF7A
:1000F6003FEF53E240E0EFEFEABBE0E0EBBBE0EFBF
:10010600E7BBE0E0E8BBA0E14ED1219798D0E883B9
:10011600EF3F09F48FC093D0EF3FE9F70E94220327
:10012600A881AF3041F40DD10FEF1FEF2FEF3FEF56
:1001360053E240E07FC0A881AB3069F40E942603F9
:1001460029F00E942B0311F4533209F003C05AE23E
:10015600AAE203D16FC0A881AA3069F40E942603DF
:1001660029F00E942B0311F4533209F003C05FE219
:10017600AFE2F3D05FC0A881AE3059F50E942603E6
:100186002CF40E942B0314F4403009F021C0ADE397
:10019600E4D05A3269F4D8010E944D05F9010E9453
:1001A60048050E947F050E94FF03DF01CB018ADF1D
:1001B6005F3269F4F8010E943003DF01CB01F901D7
:1001C6000E9430030E94D704DF01CB017BDF41E0B0
:1001D60031C0A881A03010F0AA3008F02BC0043638
:1001E600E0E01E0714F4533209F00DC0A881A05DAB
:1001F600B4D00E94260319F40881112704C0F8011F
:100206000E9435038F010E94260331F0533221F0FC
:100216002436E0E03E070CF00DC0A881A05D9DD01D
:100226000E942B0319F42881332704C0F9010E9488
:1002360035039F010E942203219667CFFFCF1A93B1
:100246001FEFC49AC598C698C7980E942203B09B10
:1002560002C017E00AC0B19B02C018E006C0B29BFC
:1002660002C019E002C0B3991AE0C498C59AC698AC
:10027600C7980E942203B09B02C014E00AC0B19B3B
:1002860002C015E006C0B29B02C016E002C0B399D8
:100296001BE0C498C598C69AC7980E942203B09BD3
:1002A60002C011E00AC0B19B02C012E006C0B29BB8
:1002B60002C013E002C0B3991DE0C498C598C69861
:1002C600C79A0E942203B09B02C01FE00AC0B19BDE
:1002D60002C010E006C0B29B02C01EE002C0B39985
:1002E6001CE0E12F19910895AA93EBB3EF70AE2F9E
:1002F600E881E07FEA2BEBBB8DE08A95F1F7DA9A8D
:100306008DE08A95F1F7DA988DE08A95F1F777C056
:10031600AA93A881E9DFE881E295E883A881E4DF72
:1003260085E88A95F1F76BC0AA93E881F0E0E05A78
:10033600FD4FE081A981AE0FEBDF59804880229600
:100346000895A2E00E943F03ACE0E2DFA1E00E9434
:100356003F03E0E04E2E5E2E0895AA93A881AA30B0
:1003660011F0571448F0E0E0EA934394A42DDCDF43
:10037600A881AA3009F443C05394D89AA881C8DF4B
:10038600D8983DC0BA93AA931A93A981BA81ED91E0
:10039600A983BA831E2FE03019F0A12FDEDFF5CF37
:1003A600188123960895AA93EAB3E06FEABBD29A1E
:1003B600D09AD19ADA98D898D9987880E881E05876
:1003C600E0936202E881E054E0936302A4E1B0E0C6
:1003D6000E9489030E9445030E9445030E9445032B
:1003E600A0E282DF88EC90E00197F1F7A8E290DFC7
:1003F600A4E08EDFA5E88CDFA6E08ADFA2DF2196E7
:100406000895BA93AA932497E0E0E883E983EA8300
:10041600EFE3EB831A930A93EB85FC85EF3FAFEF8F
:10042600FA0739F40E944D03A8E5B0E00E941503CF
:10043600ADC0EF3FAFE7FA0739F40E944D03A9E5D7
:10044600B0E00E941503A2C0AC85AA2362F4E98538
:10045600FA856B857C850E9493030E9452030E9455
:100466005703EDE2EC93A885A73010F0E6E0E887A5
:100476001885E12F1150E03039F00E945E030E948A
:1004860063030E946A03F5CF0E946F030E9439043A
:100496000E94520310E0E0E0F0E060E87FE30E9493
:1004A6006A030E946F030E941C0588F00E945E0387
:1004B6000E9478030E946A031F5F173238F00E9479
:1004C6004D03ADE5B0E00E94150360C0EACF1030E1
:1004D60029F40E945703E0E3EC932DC0E12F11505D
:1004E600E03049F10E945E030E946303A0E0B0E0A1
:1004F60080E09FE30E943904DF01CB010E94FE02E7
:100506000E946A030E946F030E94D7040E94C603DA
:100516000E2F0E945703E02FE05DEC93E02FF0E0F2
:100526000E945E030E9430030E9489040E947F039A
:100536000E948403D3CFE885E03021F10E9457035F
:10054600EEE2EC93E885E150E887EF5FD9F00E9490
:100556007F030E9478030E945203E985FA856B8522
:100566007C850E94C6030E2F0E945703E02FE05D94
:10057600EC93E02FF0E00E947F030E9430030E947C
:100586008403E0CFAE81BF81E0E0EC93198108815E
:100596002D9608950E94B9057B816A81F981E881CB
:1005A60077FB770F67FD7160972F9E5781F078F084
:1005B600983190F4AA27BB27882708948795B79582
:1005C600A7959A95D1F7EA23FB23682305C0E894FB
:1005D6007727EE27FF2766276F77769508F46068FA
:1005E60077F9A991B99189919991EA17FB0768075B
:1005F600790797FB08950E94B9050E94AA050E94F3
:10060600CD020E94AF0519F40E94A50509C0E6F7C0
:100616000E94A505A0E0B0E080E89FE30E943204B6
:1006260024960895BA93AA93E991F991A991B9915B
:10063600CD0105900D920020E1F7FC010895A5E09B
:10064600B0E00C948903EFEFFFEFE017F107089590
:10065600EFEFFFEFE217F30708950E9448050E94A7
:10066600FF030895AAE0B0E00E947A05DF01E88161
:10067600F0E0EA0FFB1F08950E948B01A3E0B0E0B3
:100686000C948903A0E30E94770188EC90E001971F
:10069600F1F70895EE81FF81FA93EA930895E987C9
:1006A600FA876B877C870895AE81BF811196AE83EA
:1006B600BF8311970895AA81BB818C819D8108957E
:1006C600EDECFCEC6CEC7DE30E9489040895EA8372
:1006D600FB836C837D830895EA81FB816C817D8138
:1006E600A985BA858B859C850895E0E0F0E060E2F7
:1006F60071E40E9489040895A985BA858B859C8535
:1007060008950E94BE050E943204C9CF109639F0A2
:1007160080ED97E00197F1F7A8951197C9F708952D
:1007260030976040704009F070580895552342F4A0
:10073600503811F4E0FF04C03196691F791F6BF041
:1007460050E8572711F45F93CFC05F3F31F0660F33
:10075600000C57956795752F08955F9300200AF052
:10076600CFC0C8C050E8192E1522880F991F9527AB
:10077600550F879550E8072E0522660F771F7527B8
:10078600550F67950895689401C0E8945F93F2DF6A
:10079600703818F07F3F08F4A7C056E1571BAAF43B
:1007A600519558300EF4593030F0EFEFFFEF6FEF00
:1007B6007FE777F91AC077275523B9F0EE0FFF1FA9
:1007C600661F771F5A95D1F710C07727583028F043
:1007D600EF2FF62F672F5850F9CF552331F0769526
:1007E6006795F795E7955A95D1F700200AF445D114
:1007F6005F910895689401C0E89430976040704016
:10080600B1F0002426F0772312F4009436D1172E87
:100816007EE1112032F07A95EE0FFF1F661F111C44
:10082600F9CFEF2FF62F612D5F938ADF5F91089541
:100836004F93AF01FD01DA01AB01BC01CA01402DA6
:10084600012C142E4F910895EA0FFB1F681F08957F
:10085600E095F0956095EF5FFF4F6F4F08955F93BA
:1008660081DF903871F150E8152604C05F937ADF76
:10087600903839F1703821F1572F591B2BF112F4AA
:10088600D7DFFACF583118F0AA27BB278827583068
:1008960028F0AB2FB82F88275850F9CF552329F0C9
:1008A6008695B795A7955A95D9F7502D512572F08B
:1008B600CBDF38F46795F795E795739513F420C069
:1008C600B7DF3EDF5F910895D8F7FBCFEA1BFB0B3E
:1008D600680B51F010F40094BBDF662392F3EE0F21
:1008E600FF1F661F7A95CBF7EE27FF276627772728
:1008F6005F910895EFEFFFEF6FE77FEF5F91089548
:10090600EFEFFFEF6FE77FE75F9108955F932ADFD1
:10091600703851F3903841F301240894791F23F479
:100926001CF300203AF3ECCF0F921F932F933F93C3
:100936004F93112722279927689FA0018F9F302D5B
:10094600410D591F6B9F300D411D591F8E9F27D09A
:10095600BF9F25D06A9F23D0BE9F1DD0AF9F1BD0BF
:10096600AE9F110D291F391F491F591FE32FF42F61
:10097600652F522F4F913F912F911F910F90662314
:100986002AF0550FEE1FFF1F661F02C073954BF22C
:10099600CDDE5F910895100D211D391F02C0200D77
:1009A600311D491F591F08955F93DCDE703821F40D
:1009B60011200AF49FCFA4CF903809F495CF0124D3
:1009C6000894970B1BF4D4F30020F3CF792F1F93D1
:1009D6002F933F934F931124112722273327442720
:1009E600552790E2AE17BF078607410730F0AE1BCA
:1009F600BF0B860B410B089401C08894551F221F1C
:100A0600331F111CAA1FBB1F881F441F9A9551F73D
:100A1600F901612D4F913F912F911F91662332F07D
:100A2600550FEE1FFF1F661F7A9543F27FDE5F911B
:100A3600089599239AF0772342F0971748F029F4FE
:100A4600AE17BF07860720F031F098948894089572
:100A56009894089408951894889408957723C2F773
:100A6600971798F3A9F7EA17FB07680788F399F32E
:100A7600ECCFF195E195F0400895F095609570956D
:100A8600E195FF4F6F4F7F4F08956F2F660F660BEF
:100A9600762F08958B2F880F880B982F0895FA9F2D
:100AA600F02DEB9FF00DEA9FE02DF10D08957A9F52
:100AB600702D6B9F700DF89F700DE99F700D6A9FEA
:100AC600602D710DFB9F600D711DE89F600D711DFE
:100AD6008827FA9FF02D610D781FEB9FF00D611DA1
:100AE600781FEA9FE02DF10D681F781F089509D041
:100AF600D6DF0EF4BEDF089512D0D9DF0EF4BDDFC7
:100B06000895E894F7FF02C0B4DF6894B7FF06C003
:100B1600A095B095119600F8039400FA0895E8940C
:100B260077FF02C0AADF689497FF0BC00024A09548
:100B3600B095809590951196801D901D00F80394B0
:100B460000FA0895E881F9816A817B810895A88178
:100B5600B9818A819B810895E883F9836A837B83BF
:100B660008957A936A93FA93EA9308959A938A93E7
:100B7600BA93AA930895182E862F612D192E972FB2
:100B8600712D1B2EBF2FF12D1A2EAE2FE12D08959C
:00000001FF
