:100000000C943E000C9400000C9400000C94000032
:100010000C9400000C9400000C9400000C94000060
:100020000C9400000C9400000C9400000C94000050
:100030000C9400000C9400000C9400000C94000040
:100040000C9400000C9400000C9400000C94000030
:100050000C9400001027E80364000A00010000105F
:100060000001100001004D6168646920416D6972F2
:10007000690080C00200600272000000F894EE2760
:10008000ECBBF1E0FBBFEBBFE5BF8DE0A2E0BB271F
:10009000ED938A95E9F780E098E0A0E6ED9301976B
:1000A000E9F7E4E7F0E085919591009761F0A5917B
:1000B000B59105901590BF01F00105900D92019743
:1000C000E1F7FB01F0CFEFE5EDBFE8E0EEBFC0E602
:1000D000D2E00C947200ADE00E946301AAE00E949D
:1000E00063010895E0E0EBB9E8E1EAB9E6E8E0BDD4
:1000F000E0E0E0BDE3E3E9B9A0E1B3D02F978CE005
:10010000A1E0B0E0E6E6F0E00E9489010E945F0114
:10011000E883A8810E946301A8817BD0E881F0E098
:10012000E334A0E0FA0711F468D035C0E336A0E06C
:10013000FA0779F4E0E0ED87EE87AD85BE85589744
:100140003CF4C9DFED85FE853196ED87FE87F5CF5E
:1001500022C0EE34A0E0FA07B1F4BDDFE0E0ED87A5
:10016000EE870E946A01EC91E03059F00E946A012A
:10017000AC910E946301ED85FE853196ED87FE8787
:10018000F0CFA9DF08C0ED34A0E0FA0721F435D0A4
:10019000DE01119655D02F96B1CFFFCFAA93E5B3CC
:1001A000EF70AE2FE881E07FEA2BE5BB8DE08A950A
:1001B000F1F7AA9A8DE08A95F1F7AA988DE08A95D1
:1001C000F1F70C946801AA93A881E8DFE881E29531
:1001D000E883A881E3DF85E88A95F1F70C9468014C
:1001E000AA93E881F0E0E05AFD4FE081A981AE0FCB
:1001F000EADF5980488022960895A2E00E947101AA
:10020000ACE0E1DFA1E00E947101E0E04E2E5E2E45
:100210000895AA93A881AA3011F0571450F0E0E095
:10022000EA934394A42DDCDFA881AA3011F40C9446
:1002300068015394A89AA881C6DFA8980C94680115
:10024000BA93AA931A93A981BA81ED91A983BA832B
:100250001E2FE03019F0A12FDCDFF5CF1881239697
:100260000895AA93E4B3E06FE4BBA29AA09AA19A7E
:10027000AA98A898A9987880E881E058E09362024B
:10028000E881E054E0936302A4E1B0E00E947F01C2
:100290000E9477010E9477010E947701A0E27EDF31
:1002A00088EC90E00197F1F7A8E28DDFA4E08BDF06
:1002B000A5E889DFA6E087DFA0DF0C9468015F9BDB
:1002C000FECFECB10895AA935D9BFECFE881ECB917
:1002D00021960895ED85FE85DE011196AE0FBF1FB4
:1002E00008950E94E300A3E0B0E00C947F01A0E336
:1002F0000E94CE0088EC90E00197F1F708951096E7
:1003000039F080ED97E00197F1F7A8951197C9F7BB
:100310000895AC0FBD1F05900D928A95E1F70895E1
:00000001FF
