:100000000C943C000C9400000C9400000C94000034
:100010000C9400000C9400000C9400000C94000060
:100020000C9400000C94A9000C9400000C940000A7
:100030000C9400000C9400000C9400000C94000040
:100040000C9400000C9400000C9400000C94000030
:100050000C9400003A1700004C434420434C4F439B
:100060004B0080C00400040054000A0060025800E5
:1000700002006A0262000000F894EE27ECBBF1E097
:10008000FBBFEBBFE5BF8DE0A2E0BB27ED938A95F8
:10009000E9F780E098E0A0E6ED930197E9F7E4E660
:1000A000F0E085919591009761F0A591B59105904B
:1000B0001590BF01F00105900D920197E1F7FB014A
:1000C000F0CFEFE5EDBFE8E0EEBFC0E6D2E00C9484
:1000D000E300AA93A881A05DD4D0A0E2D2D020C131
:1000E000AA93A881B0E0EAE0F0E00E94BF01E05DE1
:1000F000AE2FC7D0A881BB27EAE0F0E00E94C40180
:10010000E05DAE2FBED00CC1E3E0EA93A1E0A2D047
:10011000EAE05E1618F4A52DDCDF02C0A52DE0DFB5
:10012000AAE3AFD0EAE04E1618F4A42DD2DF02C045
:10013000A42DD6DFAAE3A5D0EAE07E1618F4A72DF9
:10014000C8DF02C0A72DCCDFAAE39BD0A62DC1DF5C
:1001500008950A921A92FA926A937A938A939A93DA
:10016000AA93BA93EA93FA93EFB7EA93EFECEDBD53
:10017000ECE2ECBDE9E06E1610F4639415C0EBE31D
:100180007E1610F473940FC0EBE34E1610F44394F4
:1001900009C0E7E15E1620F453947724442403C099
:1001A0005524442477246624AFDFE991EFBFF99109
:1001B000E991B991A9919991899179916991F99070
:1001C000199009901895E0E0EABBEBBBE7BBE8BBF0
:1001D000EFEFE4BBE0E0E5BBE1BBE2BBEFBDE3E09A
:1001E000EEBDEFECEDBDECE2ECBDE0E0E7BDE6BD61
:1001F000EBBDEABDE9BDE8BDE4E0E9BFA0E167D041
:100200007894E4E0EA93A0E025D0A0E6B2E04ED0F6
:10021000FFCFFFCFAA93E5B3EF70AE2FE881E07F69
:10022000EA2BE5BB8DE08A95F1F7AA9A8DE08A95D5
:10023000F1F7AA988DE08A95F1F772C0AA93A88188
:10024000E9DFE881E295E883A881E4DF85E88A9523
:10025000F1F766C0AA93E881F0E0E659FD4FE0812E
:10026000A981AE0FEBDF9980888022960895A2E0E5
:1002700059D0ACE0E3DFA1E055D0E0E08E2E9E2E19
:100280000895AA93A881AA3011F09B1448F0E0E0E9
:10029000EA938394A82DDEDFA881AA3009F440C038
:1002A0009394A89AA881CADFA8983AC0BA93AA934F
:1002B0001A93A981BA81ED91A983BA831E2FE030E8
:1002C00019F0A12FDEDFF5CF188123960895AA93A8
:1002D000E4B3E06FE4BBA29AA09AA19AAA98A89866
:1002E000A998B880E881E058E0936C02E881E05476
:1002F000E0936D02A4E1B0E00E949E0118D017D0F7
:1003000016D0A0E287DF88EC90E00197F1F7A8E231
:1003100095DFA4E093DFA5E891DFA6E08FDFA7DFFC
:10032000219608958BDFA3E0B0E00C949E01A0E33A
:1003300071DF88EC90E00197F1F70895109639F09D
:1003400080ED97E00197F1F7A8951197C9F7089507
:10035000F195E195F04008950024112490E1AA0F51
:10036000BB1F001C111C0E1A1F0A18F40E0E1F1EB4
:1003700001C0A1609A9599F7FD01D001089512D0AE
:10038000EBDF0EF4E5DF0895E894B7FF04C0A09515
:10039000B09511966894F7FDDBDFDEDFFD010EF40A
:1003A000D7DF0895E894F7FF02C0D2DF6894B7FF63
:1003B00006C0A095B095119600F8039400FA089530
:00000001FF
