:080000000C943C000C9400007C
:100008000C9400000C9400000C9400000C94000068
:100018000C9400000C9400000C9400000C94000058
:100028000C9400000C9400000C9400000C94000048
:100038000C9400000C9400000C9400000C94000038
:100048000C9400000C9400000C940000FF81EEEE6C
:10005800EE81FF80BFBFBFBFFFFFBE80BEFFFFFFB7
:10006800FFFFFFFFFFFFFFFFFFFFFFFFFFFFFF0097
:10007800F894EE27ECBBF1E0FBBFEBBFE5BF8DE0EA
:10008800A2E0BB27ED938A95E9F780E098E0A0E627
:10009800ED930197E9F7EFE5EDBFE8E0EEBFC0E6C5
:1000A800D2E00C945700EFEFEABBE0E0EBBBEFEFD8
:1000B800E4BBE0E0E5BBEFEFE1BBE0E0E2BB2497A7
:1000C800E2E1E883E0E0E983A881B981D59708F007
:1000D80044C02297E0E0E883E983A881B9811597B5
:1000E800ACF52497E1E0E883E0E0E983EA83EB8379
:1000F800EBBBE887E987A885B985189748F4E881B4
:10010800E2BB2ED0E885F9853196E887F987F3CFE9
:10011800E0E0E2BBE8E0F0E0E887F987A885B98588
:10012800509768F40E940201E8E00E94D600EBBBF9
:1001380017D0E885F9853196E887F987EFCF2496B7
:10014800E881F9813196E883F983C7CF2296E8815F
:10015800F9813196E883F983B7CF2496B0CFFFCFE2
:10016800E885F985AE81BF81AE0FBF1FE3E2F0E0FD
:100178000E94FA00EC5AFF4F049005BA0E94FD0055
:100188000E94E2000E940701A2E0B0E00C94CC00BB
:10019800109639F080ED97E00197F1F7A89511973F
:1001A800C9F70895EE230E2EFD01BC0131F07695B6
:1001B8006795F795E7950A94D1F70895EE0FFF1F15
:1001C800661F771F08950024112490E1AA0FBB1F12
:1001D800001C111C0E1A1F0A18F40E0E1F1E01C057
:1001E800A1609A9599F7FD01D0010895ECDFFD0112
:1001F8000895E881F9816A817B810895A881B98190
:100208008A819B810895E883F9836A837B830895B3
:00000001FF
