:0E0000000C9432000C9400000C9400000C9440
:10000E0000000C9400000C9400000C9400000C9462
:10001E0000000C9400000C9400000C9400000C9452
:10002E0000000C9400000C9400000C9400000C9442
:10003E0000000C9400000C9400000C9400000C9432
:10004E0000000C940000FFFFFFFFFFF7F7D5E3F76A
:10005E00FFFFFFFFFF00F894EE27ECBBF1E0FBBFC4
:10006E00EBBFE5BF8DE0A2E0BB27ED938A95E9F7E4
:10007E0080E098E0A0E6ED930197E9F7EFE5EDBF9C
:10008E00E8E0EEBFC0E6D2E00C944D00EFEFE4BB2B
:10009E00E1BB50E05A3000F5E9E0E51B4E2F31E0B0
:1000AE003B30C0F401E010E0153090F4E12FE40F86
:1000BE002E2FF0E0EC5AFF4F049002BA05BBA4E0DD
:1000CE00B0E00E947500000FE0E0E5BB1F5FECCFD3
:1000DE003F5FE6CF5F5FDECFDCCFFFCF109639F00C
:1000EE0080ED97E00197F1F7A8951197C9F708955C
:00000001FF
