:020000000C945E
:100002004A000C9400000C9400000C9400000C9424
:1000120000000C9400000C9400000C9400000C945E
:1000220000000C9400000C9400000C9400000C944E
:1000320000000C9400000C9400000C9400000C943E
:1000420000000C9400000C9400000C9400000C942E
:10005200000054494D453E2000444154453E200095
:100062003230000080C001002D4E414E00494E4604
:100072000000070060025400070067025B000300F3
:100082006E026200020071026600010075026800E1
:100092000000F894EE27ECBBF1E0FBBFEBBFE5BF3D
:1000A2008DE0A2E0BB27ED938A95E9F780E098E026
:1000B200A0E6ED930197E9F7E4E7F0E085919591E9
:1000C200009761F0A591B59105901590BF01F001DF
:1000D20005900D920197E1F7FB01F0CFEFE5EDBF3F
:1000E200E8E0EEBFC0E6D2E00C948800AA931A932F
:1000F2000A93EA81F0E0FA93EA93D8010E94B101EF
:10010200D801EFD0A0E2D8D019810881F9C0EFEF71
:10011200EABBE0E0EBBBE7BBE8BBE4BBE5BBE1BBB2
:10012200E2BB0E941E02E0E0EA93EA93A0E03ED026
:10013200A4E1E8D02797FE013696FA93EA93FE01EE
:100142003796FA93EA93DE01189649D0FE01339668
:10015200FA93EA93FE013496FA93EA93FE013596F6
:10016200FA93EA93DE01169653D09AD0A0E6B2E053
:10017200B8D0AE81BBDFAD81B9DFAC81B7DFE0E0E3
:10018200EA93A1E080D0A7E6B2E0ABD0AA81AEDFCD
:10019200A981ACDFAEE6B2E0A4D0A881A7DFA4EFCC
:1001A200B1E00E946F022796C5CFFFCFAA93EA81E2
:1001B200E370EA83E981E03019F0EA81E061EA83E1
:1001C200E881E03019F0EA81E068EA830E94EC01FC
:1001D200A7E00E945702AA810E94F10191C0BA933E
:1001E200AA930E94EC01A0E00E94F1010E94F50195
:1001F2000E94FD010E9404020E940A02AE2F0E9488
:10020200DF01AC81BD81EC930E94320226960895F3
:10021200BA93AA930E94EC01A3E00E94F1010E940A
:10022200F501AE81BF81EC930E940402AC81BD81D5
:10023200EC930E9404020E940A020E94FD010E94A5
:10024200320228960895AA93EBB3EF70AE2FE8819D
:10025200E07FEA2BEBBB8DE08A95F1F7DA9A8DE02D
:100262008A95F1F7DA988DE08A95F1F777C0AA932B
:10027200A881E9DFE881E295E883A881E4DF85E8E7
:100282008A95F1F76BC0AA93E881F0E0EF58FD4F31
:10029200E081A981AE0FEBDF598048802296089554
:1002A200A2E00E941002ACE0E2DFA1E00E94100294
:1002B200E0E04E2E5E2E0895AA93A881AA3011F096
:1002C200571448F0E0E0EA934394A42DDCDFA881C0
:1002D200AA3009F443C05394D89AA881C8DFD898A9
:1002E2003DC0BA93AA931A93A981BA81ED91A983C9
:1002F200BA831E2FE03019F0A12FDEDFF5CF18816F
:1003020023960895AA93EAB3E06FEABBD29AD09AF1
:10031200D19ADA98D898D9987880E881E058E09311
:100322007302E881E054E0937402A4E1B0E00E9419
:100332006F020E9416020E9416020E941602A0E29A
:1003420082DF88EC90E00197F1F7A8E290DFA4E069
:100352008EDFA5E88CDFA6E08ADFA2DF2196089572
:10036200BA93AA93A991B991E991F99130962AF495
:10037200E095F09531966DE26D93E89480E197E215
:100382000DD088EE93E00AD084E6992707D08AE060
:1003920005D06E2F10D066276C9308956627E81754
:1003A200F90720F06395E81BF90BC9F7662311F4EE
:1003B20016F008956894605D6D930895AA93E8819C
:1003C200E295EF70AE2FAA0FAA0FEA0FEE0FA991D6
:1003D200AF70EA0F08950E942302A0ED0C94570219
:1003E2000E9457020C9432020E942302A1ED0E9445
:1003F2005702A1E00C943C02AE2F0E94DF01A881BB
:10040200B981EC930895A1E00E943C02AE2F0C94B6
:10041200DF01AA81BB81EC93A0E00C943C020E9414
:100422003801A3E0B0E00C946F02A0E30E94240123
:1004320088EC90E00197F1F70895A898A998A09AFE
:10044200A19815C0A198A098EE270000999B089545
:10045200989B089504D0A19A02D0A09AE1E06DE0A1
:1004620007C0A19AA09A03D0A098F9DFA1986BE1E6
:100472006A95F1F7089578E0A098F1DF989BFECF96
:10048200EEDF889499990894A09AF1DFEE1F7A958D
:1004920099F77A2F772311F4A19801C0A19ADFDF8F
:1004A200A098E5DFA09ADBDFA198D9CF78E0AA0F68
:1004B20010F4A19801C0A19ADADFA098D0DF989B2E
:1004C200FECFCDDFA09A7A9591F7A198C8DFA098C8
:1004D200CEDFE1E09999EE27A09AC1CF109639F0CC
:1004E20080ED97E00197F1F7A8951197C9F7089564
:00000001FF
