:0E0000000C943C010C9400000C9400000C9435
:10000E0000000C9400000C9400000C9400000C9462
:10001E0000000C9400000C9400000C9400000C9452
:10002E0000000C9400000C9400000C9400000C9442
:10003E0000000C9400000C9400000C9400000C9432
:10004E0000000C9400000507206000000000000076
:10005E00005F00000007000700147F147F14242A9D
:10006E007F2A122313086462364955225000050375
:10007E000000001C2241000041221C00082A1C2AFC
:10008E000808083E08080050300000080808080854
:10009E00003030000020100804023E5149453E0059
:1000AE00427F400042615149462141454B3118146F
:1000BE00127F1027454545393C4A4949300171099F
:1000CE0005033649494936064949291E0036360088
:1000DE0000005636000000081422411414141414A3
:1000EE0041221408000201510906324979413E7E2F
:1000FE001111117E7F494949363E414141227F41CE
:10010E0041221C7F494949417F090901013E414174
:10011E0051327F0808087F00417F41002040413F57
:10012E00017F081422417F404040407F0204027F3D
:10013E007F0408107F3E4141413E7F090909063E7A
:10014E004151215E7F09192946464949493101012C
:10015E007F01013F4040403F1F2040201F7F20185D
:10016E00207F631408146303047804036151494526
:10017E004300007F4141020408102041417F0000EE
:10018E0004020102044040404040000102040020ED
:10019E00545454787F4844443838444444203844B6
:1001AE0044487F3854545418087E090102081454E8
:1001BE00543C7F0804047800447D40002040443DB8
:1001CE0000007F10284400417F40007C0418047812
:1001DE007C0804047838444444387C141414080809
:1001EE001414187C7C080404084854545420043F0A
:1001FE004440203C4040207C1C2040201C3C403091
:10020E00403C44281028440C5050503C4464544CFC
:10021E0044000836410000007F000000413608000F
:10022E0002010204027F4141417F000103070F1FBB
:10023E003F7FFF004D6168646920416D69726900FE
:10024E003938353232313438000001002D4E414EEE
:10025E0000494E4600000C006002420209006C028A
:10026E004E020100950258020000F894EE27ECBBF6
:10027E00F1E0FBBFEBBFE5BF8DE0A2E0BB27ED9346
:10028E008A95E9F780E098E0A0E6ED930197E9F70B
:10029E00E4E6F2E085919591009761F0A591B59114
:1002AE0005901590BF01F00105900D920197E1F7B1
:1002BE00FB01F0CFEFE5EDBFE8E0EEBFC0E6D2E028
:1002CE000C9469012A97E1E0EE83E0E0EF83E1E030
:1002DE00E887E0E0E98700ED17E020E430E040E257
:1002EE0050E0EFEFEABBE0E0EBBBEFEFE7BBE0E0A7
:1002FE00E8BBE4BBE5BBE1BBE2BBE4E5F0E0E883D1
:10030E00F983E0E0EA83EB83EC83ED83DE011BD11E
:10031E007FD1A2E3B0E00E946C0BA0E6B2E00E9497
:10032E00A506E0E0EA93A7E30E94D106ACE6B2E0B0
:10033E000E94A506D8010E94440AE4E1EA93E5E092
:10034E00EA93ECE2EA93A5E00E94DE06ECE2EA9381
:10035E00E5E00E94480AE5E0EA93E4E10E94510AD2
:10036E000E94480AEAE0EA93E8E10E94510AEA9301
:10037E00E6E2EA93A0E10E94DE06E6E2EA93E0E11D
:10038E000E94590A0E94590AEA93E9E6EA93A0E20A
:10039E000E94DE06E9E6EA93E0E2EA93E9E6EA93F2
:1003AE00ADE30E94DE06E9E6EA93EDE3EA93E7E1C8
:1003BE00EA93ADE30E94DE06E7E1EA93EDE30E94E5
:1003CE00630A0E94630A0E946D0AE8E1EA93EAE07A
:1003DE000E946D0AD8010E94440A2A934A93A5E00E
:1003EE000E94B909E885F9852E0F3F1FEE81FF8126
:1003FE004E0F5F1FEAE7F0E0E217F30721F4EFEF8D
:10040E00FFEFE887F987EAE3F0E0E417F50721F458
:10041E00EFEFFFEFEE83FF83E5E0F0E0E217F30787
:10042E0021F4E1E0F0E0E887F987E5E0F0E0E41799
:10043E00F50721F4E1E0F0E0EE83FF83A4E6B0E0FF
:10044E000E94440ACACFFFCF0000C09A0000089550
:10045E00C098C498C59808951A93F6DF19B3C0983A
:10046E00E12F19910895AA931A93E0E0EABBC19A7D
:10047E00C298E981EF5F1E2F10FF02C0C49A01C01F
:10048E00C49811FF02C0C59A01C0C598E5DFE07897
:10049E00E9F718811FC1AA93A981E5DF0E94730AAB
:1004AE0019C1E0919302EA93E0919202EF73E06436
:1004BE00AE2FF1DFE0919302EA93E0919402E86BA4
:1004CE00AE2FE9DF0895AA93E981E0939202E295B7
:1004DE00EF70E695E695E0939302E881E09394023F
:1004EE00E0DFF8C0A0919202AF5FA0939202A03815
:1004FE0018F0E0E0E0939202E0919202EF7331F493
:10050E00E0919202EA93A0919402DDDF0895AA93FE
:10051E00A0919302A8DFC29A0E94730A21960895B1
:10052E00A0919302A0DFE0E0EABBC19AC29A94DFE9
:10053E000895AA93E981EA93E9810E947C0AF0DF8B
:10054E00B0DFEEDFC7C0BA93AA931A93B89AB99ADE
:10055E00BA9ABB9AC39ABC9ABD9A7ADFC398A4E69C
:10056E00B0E00E946C0BC39A10E0123040F41A9364
:10057E00AFE391DF1A931395A0EC8DDFF6CFE1E098
:10058E00E0937502E0E0E0937602E981FA8130971C
:10059E00A9F0A981BA810E949C0BE0937902F09395
:1005AE007A0212960E949C0BE0938E02F0938F02B9
:1005BE00A981BA8114960E949C0B0AC0E0E0F0E07B
:1005CE00E0937902F0937A02E0938E02F0938F0219
:1005DE00E0939002F0939102E1E0E0937B02E093CE
:1005EE007C02E0937D02EFEFE0937E02E1E0E09388
:1005FE008502E6E8F2E0FA93EA93EFEFEA93A8E0D9
:10060E00B0E00E94C30904D0E1E01881239608955A
:10061E000E94C30B00E030E0E0917602E03009F07A
:10062E000FEF383078F4E0E0EA93A32F3F5F4BDF13
:10063E0010E0A12F1F5FA03820F4A02F0E94820A85
:10064E00F8CFEFCFE0E0EA93A0E03DDFE0E0EA9301
:10065E00A0E0A0D30E94CA0B24960895AA931A93E1
:10066E000A93AC81A03818F4AB81A03408F016C000
:10067E00EC81EA93AC815DDF1E2F13DFEB81E77017
:10068E00A1E00E947A0B0E2FEA81E03011F0102BC0
:10069E0003C0E02FE0951E23A12F39DF19810881B9
:1006AE0025960895AA93A981A03818F4A881A0349C
:1006BE0010F0E0E00FC0E981EA93A9813ADF1E2E27
:1006CE00E881E770A1E00E947A0BE12111F0E1E0F0
:1006DE0001C0E0E022960895AA931A93ED81EA9361
:1006EE00AD8127DF1E2FDDDEE981E73011F0E83026
:1006FE0039F4EB81EA93AA810E94DE09EB8308C0EC
:10070E00E33021F4EB81E095EB8302C0E03021F47D
:10071E00EA81E0951E2302C0E23029F4EA81AB8122
:10072E00EA231E2B0EC0E13029F4EA81AB81EA23C5
:10073E001E2707C0E43029F4EA81E095AB81EA2B4D
:10074E001E23A12F0E94820A188126960895AA932D
:10075E0023970E94C10BA889A03848F4AF85A03416
:10076E0030F4AE85A03019F0AD85A03009F4C8C1C3
:10077E00EE85E887A889BB27EE85F0E0AE0FBF1F98
:10078E00A138E0E0BE0720F0A889E0E8EA1BEE877A
:10079E002D85AF85BB27ED85F0E0AE0FBF1FA134D1
:1007AE00E0E0BE0720F0AF85E0E4EA1BED87A98507
:1007BE00A63009F05BC0EC85E13009F4A1C1E3304D
:1007CE0039F4E0919002F0919102309709F498C1BA
:1007DE000885ED85E695E695E6953E2FE22FE770C6
:1007EE0019F4AD852A17E9F0A02FBB27E32FF0E00F
:1007FE000E94940BAA85BB850E94860A2695269593
:10080E002695532F5F935F5FE22FAF91EA1748F063
:10081E00102FE12F1150E03019F00E948B0AF9CF02
:10082E00F1CFAE850A1711F1EE85AA85BB85F0E0F2
:10083E000E94860AED85E77009F03F5F20E02F9356
:10084E002F5FE32FAF91AE1788F41E851F931F5FA6
:10085E00E02FAF91AE1718F40E948B0AF7CFEE85FA
:10086E00AE81BF81F0E00E94860AE9CFEF85E77086
:10087E003E2FED85E03009F443C1EA85FB85EE831A
:10088E00FF8310E00889303009F065C0AD85A830CF
:10089E0008F45CC0E985E03011F0E33009F402C0E1
:1008AE00E73009F402C0E83009F402C0E63009F47A
:1008BE0002C0E93009F402C0EA3021F40A93E88953
:1008CE000E947C0A1F931F5FEE85AF91AE17B8F59D
:1008DE00A985A63061F424DEE4DD0E94980AFA931D
:1008EE00EA931EDEAE2F0E94250AFCDD27C0E985A5
:1008FE00E93011F450E00EC0EA3011F45FEF0AC097
:10090E000E94980A0E94A10A5E2FE985E73011F035
:10091E00E83021F40E94A70A5E2F06C0E33011F4DE
:10092E00509502C0E03021F4A52F0E94820A06C025
:10093E000E94AB0AEFEFEA93AD85CEDEC3CFEF8513
:10094E00E85FEF87ED85E850ED87D1C05D8520E04B
:10095E00E0E0ED877AC0E32FAD85AE0FA93020F42D
:10096E002D85E0E0ED8703C0E8E0E31B2E2F3A93E0
:10097E00A22F0E94D3094E2FE985E630F1F41F9382
:10098E001F5FEE85AF91AE17B8F40E94B10AAE2F7D
:10099E00E32F0E94820B0E94B80AE32FA42F0E941D
:1009AE00820BE095E1215E2B0E94980AFA93EA935E
:1009BE00A52F0E94250AE3CF2CC0E93011F450E098
:1009CE0003C0EA30A9F45FEF0E94A70AAE2FE32F0F
:1009DE000E947A0B5E2F1F931F5FEE85AF91AE17AD
:1009EE0030F40E94AB0A4A93A0E076DEF4CF11C039
:1009FE001F931F5FEE85AF91AE1758F40E94C30A86
:100A0E00AE2FE32F0E947A0BEA934A93AD8564DEF4
:100A1E00EFCFED85E03009F473C0AD85A83028F432
:100A2E00ED85E21B5E2FE0E003C0532FED85E8500D
:100A3E00ED8710E0EF85E85FEF87E8E0E31B2E2FF0
:100A4E000889EA85FB85EE83FF83E52FF0E0E85CFD
:100A5E00FD4F4491E985E630F1F41F931F5FEE855B
:100A6E00AF91AE17B8F40E94B10AAE2FE22F0E94DA
:100A7E007A0B0E94B80AE22FA42F0E947A0BE095FF
:100A8E00E1215E2B0E94980AFA93EA93A52F0E9409
:100A9E00250AE3CF2CC0E93011F450E003C0EA3050
:100AAE00A9F45FEF0E94A70AAE2FE22F0E94820BDD
:100ABE005E2F1F931F5FEE85AF91AE1730F40E942D
:100ACE00AB0A4A93A0E008DEF4CF11C01F931F5F5C
:100ADE00EE85AF91AE1758F40E94C30AAE2FE22FE7
:100AEE000E94820BEA934A93AD85F6DDEFCFE8853F
:100AFE00AA85BB85F0E0EA0FFB1FEA87FB87B9CE1C
:100B0E000E94C80B619608950E94D00A24F0E0E07E
:100B1E00F0E00C94DC09A881B981A038E0E0BE07B2
:100B2E0024F0EFE7F0E00C94DC09E881F9810C94F5
:100B3E00DC090E94D00A24F0E0E0F0E00C94DC091D
:100B4E00A881B981A034E0E0BE0724F0EFE3F0E025
:100B5E000C94DC09E881F9810C94DC09AA93E981F3
:100B6E00EA93E981EA93A091750278DD0C94DC0991
:100B7E00BA93AA9323970E94D70A8F01002E012AB7
:100B8E0019F4E0E0F0E05FC00E94DE0A0F820E94DE
:100B9E00DE0A0E820E94DE0A0886EB85A885EA1719
:100BAE0018F4E0E0F0E04FC0F8010F5F1F4F5491D2
:100BBE00A885BB27EE27A50FBE1FEB85F0E0EA1731
:100BCE00FB0718F0E0E0F0E03EC0EE81E695E6951A
:100BDE00E6954E2FEE81E77009F04F5FEF81E03022
:100BEE00A1F0A985BA85EC93A885EB85EA1BF0E008
:100BFE00DF01EF81F0E00E94940BDF01E42FF0E0C3
:100C0E000E94940BE00FF11F1EC09801E52FF0E03B
:100C1E000E0F1F1FA885AF5FA887A150EB85AE17DB
:100C2E0060F4F9012F5F3F4FA491B0E0E42FF0E0A4
:100C3E000E94940B0E0F1F1FEDCFF901E491A985B1
:100C4E00BA85EC93F8010E94C80B2C960895E0E04B
:100C5E00E0937702A0917802BB270E94E30AF0E0AE
:100C6E00AE0FBF1FE0917C02F0E0AE0FBF1F61DF41
:100C7E00E09378020895AA9321970E94D70A30979D
:100C8E0009F457C0AF81AA3009F44FC0EF81EA933F
:100C9E00DE0117966DDFAF01309719F40E94C80B75
:100CAE0002C3E0917B02AE81EA0F3E2FA091770244
:100CBE00BB270E94EA0A0138E0E01E0718F0032F56
:100CCE001127C5DFE0917702EA93E0917802EA936B
:100CDE00E885EA930E94E30AEA93E1E0EA935A93E5
:100CEE004A93A7E034DDE0917702AE81EA0FEA93F2
:100CFE00E0917802EA93E0917B02EA930E94E30A84
:100D0E000E94EF0AE0917702EA93A09178020E9486
:100D1E00E30AEA0FEA933A93E0917C020E94EF0A0B
:100D2E00E0E8F0E0E017F10721F491DF0E94C80B34
:100D3E00BAC2009377020E94C80BB5C2BA93AA93A7
:100D4E001A93A981BA81ED91A983BA831E2FE0303F
:100D5E0019F0A12F90DFF5CF18810C94230AAA93D6
:100D6E00EA81EA93EA81EA93E0917E02AA81EA237C
:100D7E0019F0E091750202C0E0917602AE2F6EDCA2
:100D8E00E881EE0FE883E03011F4E1E0E883E881DA
:100D9E000C94230AAA93A981BB27B6DEE0937702AF
:100DAE00A881BB27C6DEE09378020C94DC09AA93D7
:100DBE002B970E94C10BAC89BB27A6DEEC8BAA89B0
:100DCE00BB27A2DEEA8BAB89BB27B3DEEB8BA989EF
:100DDE00BB27AFDEE98BEA89E0937702E989E093DE
:100DEE007802E1E0E887E989AB89EA1771F51C8999
:100DFE00AA891A1731F41A93EC89EA93A1E0AFDFAE
:100E0E00C8C0AA891A1730F4EA89E11B0E2F41E0F7
:100E1E0050E006C0AA89E12FEA1B0E2F4FEF5FEFBD
:100E2E003B89E0E0EE830E94F90A38F41A933A9374
:100E3E003395AA8594DFEF83F6CFEF81E887140F01
:100E4E00E02F0150E03061F7A4C0EA89AC89EA17BF
:100E5E0039F53B89A9893A1730F4E989E31B2E2F1E
:100E6E00E1E0F0E006C0A989E32FEA1B2E2FEFEF99
:100E7E00FFEFED87FE871C89E0E0EE830E94F90A02
:100E8E0030F41A9313950E94010BEF83F7CFEF8185
:100E9E00E887ED853E0FE22F2150E03061F779C0F3
:100EAE00E0E0EE830E94F90A08F073C01C893B89CA
:100EBE00E1E02E2F0E2FAA89BB27EC89F0E0AE1BA6
:100ECE00BF0BAD0155232AF40FEFFA010E94760BEA
:100EDE00AF01FA01EE0FFF1FEF87F88BA989BB2731
:100EEE00EB89F0E0AE1BBF0BAD87BE87AE85AA23A4
:100EFE003AF42FEFED85FE850E94760BED87FE8787
:100F0E00ED85FE85EE0FFF1FEB87FC871A933A9354
:100F1E00A1E025DFE887E0E0E987EA87AD85BE85B9
:100F2E004A175B07BCF0100FEB85FC850E94050B82
:100F3E00A985BA854A175B072CF4320FAF85B8899D
:100F4E000E940C0B1A930E94010BE887EA89E117A5
:100F5E0051F718C0320FEF85F8890E94050BED8509
:100F6E00FE85A985BA85EA17FB072CF4100FAB8511
:100F7E00BC850E940C0B1A930E94010BE887E9892D
:100F8E00E31741F7EB89EF5FEB8BE989EF5FE98BB5
:100F9E0089CF0E94C80B65960895BA93AA9323979A
:100FAE000E94C10BED85E887E0917D02EF83E09111
:100FBE007502EE83AA89BB27EF850E94EA0AA989EA
:100FCE00BB27E8890E94130BE8890E941A0B71F067
:100FDE00E885E078F1F4AD85BE85EAE5F0E00E94A3
:100FEE00220B1CF00E942B0B0CF413C0332312F0B7
:100FFE000E94300BAF81A23020F02230E0E03E079D
:10100E000CF407C00E94340B21F40A93A22FA150B6
:10101E00A5DDE885E878E83891F0E885E078C9F450
:10102E00AD85BE85A25FBE4F0E943D0B3CF0AD85E7
:10103E00BE85A25FBE4F0E94420B0CF40AC00E94F6
:10104E00470B38F00E944E0B21F40A93A42FAF5F8A
:10105E0085DDAA89BB27EF85F0E0AE1BBF0B8D01A6
:10106E0011230AF445C0E885E278E23891F0E8856C
:10107E00E07811F5AD85BE85A65ABF4F0E943D0B97
:10108E003CF0AD85BE85A65ABF4F0E94420B0CF4B4
:10109E0013C0332312F00E94300BAF81A23020F028
:1010AE002230E0E03E070CF407C00E94340B21F41E
:1010BE000A93A22FA15052DDE885E478E43871F04E
:1010CE00E885E078A9F4AD85BE85EEE0F1E00E94FA
:1010DE00220B1CF00E942B0B0CF40AC00E94470B33
:1010EE0038F00E944E0B21F40A93A42FAF5F36DD29
:1010FE00AA89BB27E8890E94EA0AA989BB27EF853E
:10110E000E94130BEF850E941A0B81F0E885E078A0
:10111E00F1F4EB85FC85AD85BE85AE17BF072CF0CF
:10112E00E985FA85EA17FB070CF411C033237AF030
:10113E000E94300BAF81A23050F0E02FEE5F0E9484
:10114E00570B29F4E02FEF5FEA93A22F07DDE88516
:10115E00E878E83871F0E885E078C1F4AD85BE85B1
:10116E00E8E6F1E00E94220B1CF00E942B0B0CF41F
:10117E000DC00E94470B50F0E02FEE5F0E945F0BF8
:10118E0029F4E02FEF5FEA93A42FE8DCAA89BB27AE
:10119E00E889F0E0AE1BBF0B8D0111230AF450C09D
:1011AE00E885E278E23871F0E885E07809F5AD85FA
:1011BE00BE85E4EBF0E00E94220B1CF00E942B0B8C
:1011CE000CF416C03323A2F00E94300BAF81A23074
:1011DE0020F00230E0E01E070CF40AC0E02FE250CF
:1011EE000E94570B29F4E02FE150EA93A22FB6DCB0
:1011FE00E885E478E43891F0E885E07809F5AD8586
:10120E00BE85AC54BF4F0E943D0B3CF0AD85BE85F4
:10121E00AC54BF4F0E94420B0CF412C00E94470BFD
:10122E0020F00230E0E01E070CF40AC0E02FE2507E
:10123E000E945F0B29F4E02FE150EA93A42F8EDC7D
:10124E000E94C80B63960895AA930E94C30BAF81A8
:10125E00BB27ED81F0E0AE1BBF0B56DC1E2FAF811E
:10126E00BB27ED81F0E0AE0FBF1F4EDC0E2FAE811F
:10127E00BB27EC81F0E0AE1BBF0B5BDC3E2FAE81DB
:10128E00BB27EC81F0E0AE0FBF1F53DC2E2F1A935D
:10129E003A930A93A32F8BDD1A932A930A93A22FC4
:1012AE0086DD0E94CA0B28960895AA930E94C10B50
:1012BE00A985A03818F4A885A03408F04FC0509125
:1012CE007D02E52F5150E03009F448C0EF81E03047
:1012DE0009F444C0EF81E150EF83EF5F0E2FF0E091
:1012EE00A5E0B0E0AE1BBF0BFD010E948A0B0E9471
:1012FE008F0B9F0110E0AE81A03459F40E94670B52
:10130E001A93A02FA1DF0E94670B0A93A12F9CDFD7
:10131E000FC00E94670B1A930A93EA85F0E0FA93C6
:10132E00EA93E0E0F0E0FA93EA93A0E0B0E035DE75
:10133E001F5F33231AF4E12FF0E008C00150A12FF4
:10134E00BB27E02FF0E0AE1BBF0BFD01EE0FFF1F22
:10135E0031962E0F3F1F011770F6B3CF0E94C80BA8
:10136E002A960895AA93EA81EA93EA81EA93EA819A
:10137E00EA93AFE89ADF60C0BA93AA93B981A881C5
:10138E00109631F0FC81EB816A8161931197E9F738
:10139E00EB81FC8125960895AA93E881F0E0E85C44
:1013AE00FD4FA491E9810E947A0B22960895AA938B
:1013BE001A93E981E73011F0EA3019F410917502B1
:1013CE0009C0E93019F41091760204C0E830A1F496
:1013DE0010918502E0917602E03049F0103019F05C
:1013EE00EFEF188129C0EA81E095188125C01030F1
:1013FE0019F4E0E0188120C0EA8118811DC0BA936B
:10140E00AA93EA81E13021F4E881F981E49114C0D4
:10141E00E23029F4A881B9810E94A00B0DC0E330FF
:10142E0041F4A881B981E0918E02F0918F02099565
:10143E0003C0A881B981EC9123960895AA93EB81FC
:10144E00E03029F4E881A981BA81EC9314C0E2302E
:10145E0031F4E881A981BA810E94AC0B0CC0E33053
:10146E0051F4E981FA81FA93EA93AA81E09190020C
:10147E00F09191020995249608950E946C0B0C949C
:10148E000F03EA93ECE2EA93AAE00E94DE06E4E19F
:10149E00EA930895EA93AAE00E94DE06E6E2EA9352
:1014AE00EAE00895EA93E0E4EA93A4E00E94DE06FF
:1014BE00EDE7EA93E0E20895EA93E7E1EA93A1E229
:1014CE000E94DE06E4E0EA93E1E20895EA93E8E1A1
:1014DE00EA93A7E10C94DE06C198EFEFEABBE88130
:1014EE00EBBB0E942B020C942F02E695E695E69537
:1014FE00AE2F0C946A020E948E020C947902EA0FAF
:10150E00FB1FEE83FF830895EC85EA93EF81F88548
:10151E003196EF83F8873197FA93EA93A0E00C9413
:10152E00250AEC85EA93EF81F8853196EF83F887EB
:10153E003197089566277727DF01CB010C94060AB1
:10154E005A93AA850C94DE090A930395E889EA93C7
:10155E005A9308950A930395A8890E94A002E42342
:10156E0008955E2FEC85EA93AF81B8858827992779
:10157E000E94060A1E2E08950A930395E889EA939F
:10158E00EE85EA93E985FA853196E987FA873197F0
:10159E00D1CFBA93AA93A881B9810E94BD0B0895A9
:1015AE000E94C10BE0917902F0917A020895F80140
:1015BE000F5F1F4F04900895E0917902F0917A0227
:1015CE003196E4910895F0E0EA0FFB1F8F01089524
:1015DE00EA93E0E0EA93E0E0F0E0FA93EA93A9E020
:1015EE000C94AE03AE81AF5FAE83A150E0917D024D
:1015FE00AE1708953A93AA850C94B606A985BA85B6
:10160E00EA0FFB1FE987FA870895E985FA85EA1B39
:10161E00FB0BE987FA870895F0E0AE1BBF0B9D0127
:10162E00A989BB270895F0E0EA0FFB1FAF01E885FB
:10163E00E178E1380895EA1BFB0B0F01DF01EB8522
:10164E00FC85AE17BF070895E985FA85E015F1050B
:10165E0008950A93A22F0C94B5050A93A22FA250B7
:10166E000E945903AE2FEE81EA170895EB85FC8593
:10167E00AE17BF070895E985FA85EA17FB070895A7
:10168E000A93A42F0E94B505AF81A23008950A9344
:10169E00A42FAE5F0E945903AE2FEE81EA17089574
:1016AE00EA93A22F0E945903AE2FEE81EA170895F6
:1016BE00EA93A42F0E945903AE2FEE81EA170895E4
:1016CE00E985EA93E985EA930895109639F080ED5D
:1016DE0097E00197F1F7A8951197C9F70895F1953D
:1016EE00E195F0400895EE230E2EEA2F19F0EE0F3D
:1016FE000A94E9F70895EE230E2EEA2F19F0E695D7
:10170E000A94E9F70895EE0FFF1FEE0FFF1F0895DD
:10171E00F595E795F595E7950895FA9FF02DEB9FD2
:10172E00F00DEA9FE02DF10D0895ED91FC911197CA
:10173E000895E199FECFFF93FFB7F894AEBBBFBB00
:10174E00E09AEDB3FFBFFF910895E19B02C0A8950B
:10175E00FCCF9FB7F894AEBBBFBBE09A8DB3E81732
:10176E0019F0EDBBE29AE19A9FBF089500240A1684
:10177E000B0608955A934A933A932A931A930A930F
:10178E0008955D814C813B812A81198108810895DC
:00000001FF
