:100000000C9437000C9400000C9400000C94000039
:100010000C9400000C9400000C9400000C94000060
:100020000C9400000C9400000C9464000C940000EC
:100030000C9400000C9400000C9400000C94000040
:100040000C9400000C9400000C9400000C94000030
:100050000C9400003F065B4F666D7D077F6F777CD9
:10006000395E797100000100050064000000F89419
:10007000EE27ECBBF1E0FBBFEBBFE5BF8DE0A2E0FC
:10008000BB27ED938A95E9F780E098E0A0E6ED9331
:100090000197E9F7E6E6F0E085919591009761F028
:1000A000A591B59105901590BF01F00105900D92B5
:1000B0000197E1F7FB01F0CFEFE5EDBFE8E0EEBF20
:1000C000C0E6D2E00C9480000A921A929A93AA9306
:1000D000BA93EA93FA93EFB7EA93E52DF0E03196FD
:1000E000DF01E3E0F0E00E9422015E2EE991EFBF24
:1000F000F991E991B991A99199911990099018955F
:10010000E0E0EABBEFEFEBBBE7BBE0E0E8BBEFEF23
:10011000E4BBE0E0E5BBEFEFE1BBE0E0E2BBEDE03C
:10012000E3BFE0E0E2BFECBFE2E0E9BF78942697EE
:10013000A0E0C899A1E0E1E0EA9F602DA0E0C999A4
:10014000A1E0E2E0EA9FF0016E0FA0E0CA99A1E011
:10015000E4E0EA9FF0016E0FA0E0CB99A1E0E8E0B7
:10016000EA9FF0016E0FA0E0CC99A1E0E0E1EA9FE8
:10017000F0016E0FA0E0CD99A1E0E0E2EA9FF0016E
:100180006E0FA0E0CE99A1E0E0E4EA9FF0016E0FCF
:10019000A0E0CF99A1E0E0E8EA9FF001E60FF0E0EF
:1001A000EC83FD83EF70F070EA83FB83EC81FD81CB
:1001B0000E940601E883F983552041F4EFE1E2BB98
:1001C000EA81FB81EC5AFF4F049005BAE1E0E515A6
:1001D00041F4EFE2E2BBE881F981EC5AFF4F049071
:1001E00005BAA1E0B0E00E94F8002696A0CFFFCFAC
:1001F000109639F080ED97E00197F1F7A8951197E7
:10020000C9F70895F195E195F0400895F695E795C1
:10021000F695E795F695E795F695E7950895002408
:10022000112490E1AA0FBB1F001C111C0E1A1F0AFB
:1002300018F40E0E1F1E01C0A1609A9599F7FD01DA
:10024000D0010895E894B7FF04C0A095B095119629
:100250006894F7FDD7DFE3DFFD010EF4D3DF0895E7
:00000001FF
