:0C0000000C9452000C9400000C940000C2
:10000C000C9400000C9400000C9400000C94000064
:10001C000C9400000C9400000C9400000C94000054
:10002C000C9400000C9400000C9400000C94000044
:10003C000C9400000C9400000C9400000C94000034
:10004C000C9400000C940000FF81EEEEEE81FFFF9B
:10005C00FFFFFFFFFF80B6B6B6C9FFFFFFFFFFFF34
:10006C00FFC1BEBEBEDDFFFFFFFFFFFFFF80BEBEB8
:10007C00BEC1FFFFFFFFFFFFFF80B6B6B6BEFFFF9E
:10008C00FFFFFFFFFF80F6F6F6FEFFFFFFFFFFFF0F
:10009C00FFFFFFFFFFFFFFFFF894EE27ECBBF1E043
:1000AC00FBBFEBBFE5BF8DE0A2E0BB27ED938A95CC
:1000BC00E9F780E098E0A0E6ED930197E9F7EFE52A
:1000CC00EDBFE8E0EEBFC0E6D2E00C946D00E0E0DE
:1000DC00EABBEBBBEFEFE7BBE0E0E8BBEFEFE4BB69
:1000EC00E0E0E5BBEFEFE1BBE0E0E2BB2897E1E449
:1000FC00E883E9E0E983EDE3EA83E0E0EB830E9447
:10010C0058010E94620108F44FC02297E0E0E88396
:10011C00E983A881B98115970CF03DC02497E1E0E3
:10012C00E883E0E0E983EA83EB83E8BBEA87EB87CB
:10013C00EC87ED873CD0A830E0E0BE07E0E08E070E
:10014C00E0E09E0728F4E881E2BB36D050D0F2CF35
:10015C00E0E0E2BBE8E0F0E060E070E0EA87FB871B
:10016C006C877D8724D0A031E0E0BE07E0E08E07ED
:10017C00E0E09E0748F40E945801E8E00E94190153
:10018C00E8BB1AD034D0EECF2496E881F9813196B1
:10019C00E883F983BECF22960E94530131976040C9
:1001AC0070400E945D01ABCF2896A0CFFFCFAA85EF
:1001BC00BB858C859D850895EE81FF816885798549
:1001CC00F6DF0E941401E0E5F0E060E070E00E94D0
:1001DC004F01EC5AFF4F049005BA0E9453010E9444
:1001EC0025010E945D01A2E0B0E00C940A01EA85B1
:1001FC00FB856C857D85EF5FFF4F6F4F7F4FEA87E7
:10020C00FB876C877D870895109639F080ED97E019
:10021C000197F1F7A8951197C9F70895AE0FBF1F75
:10022C00861F971F0895EE230E2EFD01BC0131F0A1
:10023C0076956795F795E7950A94D1F70895EE0FA3
:10024C00FF1F661F771F08953F934F935F93002402
:10025C0011244427552730E2AA0FBB1F881F991F72
:10026C00001C111C441F551F0E1A1F0A460B570B5E
:10027C0028F40E0E1F1E461F571F01C0A1603A9591
:10028C0059F7FD01BC01D001CA015F914F913F911B
:10029C000895DADFFD01BC010895E881F9816A81D6
:1002AC007B810895A881B9818A819B810895E88317
:1002BC00F9836A837B83089510978040904008955A
:00000001FF
