:100000000C9450000C9400000C9400000C94000020
:100010000C9400000C9400000C9400000C94000060
:100020000C9400000C947D000C9400000C940000D3
:100030000C9400000C9400000C9400000C94000040
:100040000C9400000C9400000C9400000C94000030
:100050000C94000030313233343536373839414270
:10006000434445461027E80364000A0001000010DD
:10007000000110000100496E20746865204E616D1A
:1000800065206F6620476F640D0A000001002D4E49
:10009000414E00494E460000010060028C00000005
:1000A000F894EE27ECBBF1E0FBBFEBBFE5BF8DE0C2
:1000B000A2E0BB27ED938A95E9F780E098E0A0E6FF
:1000C000ED930197E9F7E8E9F0E0859195910097C4
:1000D00061F0A591B59105901590BF01F0010590D3
:1000E0000D920197E1F7FB01F0CFEFE5EDBFE8E0FE
:1000F000EEBFC0E6D2E00C94EB000A921A92FA929C
:100100006A937A938A939A93AA93BA93EA93FA9307
:10011000EFB7EA931A930A93A0E09899A1E0E1E07F
:10012000EA9F602DA0E09999A1E0E2E0EA9FF0014A
:100130006E0FA0E09A99A1E0E4E0EA9FF0016E0F53
:10014000A0E09B99A1E0E8E0EA9FF0016E0FA0E03B
:100150009C99A1E0E0E1EA9FF0016E0FA0E09D997B
:10016000A1E0E0E2EA9FF0016E0FA0E09E99A1E01D
:10017000E0E4EA9FF0016E0FA0E09F99A1E0E0E8C3
:10018000EA9FF001E60FF0E08F01EBE0EDBDECED52
:10019000ECBDF8010E943001EC5AFF4FA49146D00B
:1001A000F801EF70F070EC5AFF4FA4913FD0ADE032
:1001B0003DD0AAE03BD009911991E991EFBFF991A7
:1001C000E991B991A9919991899179916991F99060
:1001D000199009901895659785E1A0E0B0E0E6E7F1
:1001E000F0E00E943901E0E0E4BBE5BBEBB9E8E1F7
:1001F000EAB9E6E8E0BDE0E0E0BDE3E3E9B9E0E06C
:10020000EFBDE4E0EEBDE5E8EDBDEEEEECBDE0E017
:10021000E7BDE6BDEBBDEABDE9BDE8BDE4E0E9BF91
:100220007894DE010E941D01FFCFFFCFAA935D9B52
:10023000FECFE881ECB921960895BA93AA931A9358
:10024000A981BA81ED91A983BA831E2FE03019F0FC
:10025000A12FECDFF5CFAAE0E9DF188123960895FE
:10026000F695E795F695E795F695E795F695E79572
:100270000895AC0FBD1F05900D928A95E1F7089582
:00000001FF
